{
  "contractName": "Forwarder",
  "abi": [
    {
      "inputs": [],
      "stateMutability": "nonpayable",
      "type": "constructor"
    },
    {
      "anonymous": false,
      "inputs": [
        {
          "indexed": true,
          "internalType": "bytes32",
          "name": "domainSeparator",
          "type": "bytes32"
        },
        {
          "indexed": false,
          "internalType": "bytes",
          "name": "domainValue",
          "type": "bytes"
        }
      ],
      "name": "DomainRegistered",
      "type": "event"
    },
    {
      "anonymous": false,
      "inputs": [
        {
          "indexed": true,
          "internalType": "bytes32",
          "name": "typeHash",
          "type": "bytes32"
        },
        {
          "indexed": false,
          "internalType": "string",
          "name": "typeStr",
          "type": "string"
        }
      ],
      "name": "RequestTypeRegistered",
      "type": "event"
    },
    {
      "inputs": [],
      "name": "EIP712_DOMAIN_TYPE",
      "outputs": [
        {
          "internalType": "string",
          "name": "",
          "type": "string"
        }
      ],
      "stateMutability": "view",
      "type": "function"
    },
    {
      "inputs": [],
      "name": "GENERIC_PARAMS",
      "outputs": [
        {
          "internalType": "string",
          "name": "",
          "type": "string"
        }
      ],
      "stateMutability": "view",
      "type": "function"
    },
    {
      "inputs": [
        {
          "internalType": "bytes32",
          "name": "",
          "type": "bytes32"
        }
      ],
      "name": "domains",
      "outputs": [
        {
          "internalType": "bool",
          "name": "",
          "type": "bool"
        }
      ],
      "stateMutability": "view",
      "type": "function"
    },
    {
      "inputs": [
        {
          "internalType": "bytes32",
          "name": "",
          "type": "bytes32"
        }
      ],
      "name": "typeHashes",
      "outputs": [
        {
          "internalType": "bool",
          "name": "",
          "type": "bool"
        }
      ],
      "stateMutability": "view",
      "type": "function"
    },
    {
      "stateMutability": "payable",
      "type": "receive"
    },
    {
      "inputs": [
        {
          "internalType": "address",
          "name": "from",
          "type": "address"
        }
      ],
      "name": "getNonce",
      "outputs": [
        {
          "internalType": "uint256",
          "name": "",
          "type": "uint256"
        }
      ],
      "stateMutability": "view",
      "type": "function"
    },
    {
      "inputs": [
        {
          "components": [
            {
              "internalType": "address",
              "name": "from",
              "type": "address"
            },
            {
              "internalType": "address",
              "name": "to",
              "type": "address"
            },
            {
              "internalType": "uint256",
              "name": "value",
              "type": "uint256"
            },
            {
              "internalType": "uint256",
              "name": "gas",
              "type": "uint256"
            },
            {
              "internalType": "uint256",
              "name": "nonce",
              "type": "uint256"
            },
            {
              "internalType": "bytes",
              "name": "data",
              "type": "bytes"
            },
            {
              "internalType": "uint256",
              "name": "validUntil",
              "type": "uint256"
            }
          ],
          "internalType": "struct IForwarder.ForwardRequest",
          "name": "req",
          "type": "tuple"
        },
        {
          "internalType": "bytes32",
          "name": "domainSeparator",
          "type": "bytes32"
        },
        {
          "internalType": "bytes32",
          "name": "requestTypeHash",
          "type": "bytes32"
        },
        {
          "internalType": "bytes",
          "name": "suffixData",
          "type": "bytes"
        },
        {
          "internalType": "bytes",
          "name": "sig",
          "type": "bytes"
        }
      ],
      "name": "verify",
      "outputs": [],
      "stateMutability": "view",
      "type": "function"
    },
    {
      "inputs": [
        {
          "components": [
            {
              "internalType": "address",
              "name": "from",
              "type": "address"
            },
            {
              "internalType": "address",
              "name": "to",
              "type": "address"
            },
            {
              "internalType": "uint256",
              "name": "value",
              "type": "uint256"
            },
            {
              "internalType": "uint256",
              "name": "gas",
              "type": "uint256"
            },
            {
              "internalType": "uint256",
              "name": "nonce",
              "type": "uint256"
            },
            {
              "internalType": "bytes",
              "name": "data",
              "type": "bytes"
            },
            {
              "internalType": "uint256",
              "name": "validUntil",
              "type": "uint256"
            }
          ],
          "internalType": "struct IForwarder.ForwardRequest",
          "name": "req",
          "type": "tuple"
        },
        {
          "internalType": "bytes32",
          "name": "domainSeparator",
          "type": "bytes32"
        },
        {
          "internalType": "bytes32",
          "name": "requestTypeHash",
          "type": "bytes32"
        },
        {
          "internalType": "bytes",
          "name": "suffixData",
          "type": "bytes"
        },
        {
          "internalType": "bytes",
          "name": "sig",
          "type": "bytes"
        }
      ],
      "name": "execute",
      "outputs": [
        {
          "internalType": "bool",
          "name": "success",
          "type": "bool"
        },
        {
          "internalType": "bytes",
          "name": "ret",
          "type": "bytes"
        }
      ],
      "stateMutability": "payable",
      "type": "function"
    },
    {
      "inputs": [
        {
          "internalType": "string",
          "name": "typeName",
          "type": "string"
        },
        {
          "internalType": "string",
          "name": "typeSuffix",
          "type": "string"
        }
      ],
      "name": "registerRequestType",
      "outputs": [],
      "stateMutability": "nonpayable",
      "type": "function"
    },
    {
      "inputs": [
        {
          "internalType": "string",
          "name": "name",
          "type": "string"
        },
        {
          "internalType": "string",
          "name": "version",
          "type": "string"
        }
      ],
      "name": "registerDomainSeparator",
      "outputs": [],
      "stateMutability": "nonpayable",
      "type": "function"
    },
    {
      "inputs": [
        {
          "components": [
            {
              "internalType": "address",
              "name": "from",
              "type": "address"
            },
            {
              "internalType": "address",
              "name": "to",
              "type": "address"
            },
            {
              "internalType": "uint256",
              "name": "value",
              "type": "uint256"
            },
            {
              "internalType": "uint256",
              "name": "gas",
              "type": "uint256"
            },
            {
              "internalType": "uint256",
              "name": "nonce",
              "type": "uint256"
            },
            {
              "internalType": "bytes",
              "name": "data",
              "type": "bytes"
            },
            {
              "internalType": "uint256",
              "name": "validUntil",
              "type": "uint256"
            }
          ],
          "internalType": "struct IForwarder.ForwardRequest",
          "name": "req",
          "type": "tuple"
        },
        {
          "internalType": "bytes32",
          "name": "requestTypeHash",
          "type": "bytes32"
        },
        {
          "internalType": "bytes",
          "name": "suffixData",
          "type": "bytes"
        }
      ],
      "name": "_getEncoded",
      "outputs": [
        {
          "internalType": "bytes",
          "name": "",
          "type": "bytes"
        }
      ],
      "stateMutability": "pure",
      "type": "function"
    }
  ],
  "bytecode": "0x60806040523480156200001157600080fd5b5060006040518060800160405280605d815260200162001f0c605d9139604051602001620000409190620001da565b604051602081830303815290604052905062000062816200006960201b60201c565b506200029f565b600081805190602001209050600160008083815260200190815260200160002060006101000a81548160ff021916908315150217905550807f64d6bce64323458c44643c51fe45113efc882082f7b7fd5f09f0d69d2eedb20283604051620000d291906200020d565b60405180910390a25050565b6000620000eb8262000231565b620000f781856200023c565b93506200010981856020860162000258565b62000114816200028e565b840191505092915050565b60006200012c8262000231565b6200013881856200024d565b93506200014a81856020860162000258565b80840191505092915050565b600062000165600f836200024d565b91507f466f7277617264526571756573742800000000000000000000000000000000006000830152600f82019050919050565b6000620001a76001836200024d565b91507f29000000000000000000000000000000000000000000000000000000000000006000830152600182019050919050565b6000620001e78262000156565b9150620001f582846200011f565b9150620002028262000198565b915081905092915050565b60006020820190508181036000830152620002298184620000de565b905092915050565b600081519050919050565b600082825260208201905092915050565b600081905092915050565b60005b83811015620002785780820151818401526020810190506200025b565b8381111562000288576000848401525b50505050565b6000601f19601f8301169050919050565b611c5d80620002af6000396000f3fe6080604052600436106100955760003560e01c8063c3f28abd11610059578063c3f28abd14610198578063c722f177146101c3578063d9210be514610200578063e024dc7f14610229578063e2b62f2d1461025a5761009c565b8063066a310c146100a157806321fe98df146100cc5780632d0335ab146101095780639c7b459214610146578063ad9f99c71461016f5761009c565b3661009c57005b600080fd5b3480156100ad57600080fd5b506100b6610297565b6040516100c39190611848565b60405180910390f35b3480156100d857600080fd5b506100f360048036038101906100ee9190611002565b6102b3565b6040516101009190611788565b60405180910390f35b34801561011557600080fd5b50610130600480360381019061012b9190610fd9565b6102d3565b60405161013d919061194a565b60405180910390f35b34801561015257600080fd5b5061016d6004803603810190610168919061102b565b61031c565b005b34801561017b57600080fd5b50610196600480360381019061019191906110a0565b610412565b005b3480156101a457600080fd5b506101ad610433565b6040516101ba9190611848565b60405180910390f35b3480156101cf57600080fd5b506101ea60048036038101906101e59190611002565b61044f565b6040516101f79190611788565b60405180910390f35b34801561020c57600080fd5b506102276004803603810190610222919061102b565b61046f565b005b610243600480360381019061023e91906110a0565b6105cd565b6040516102519291906117a3565b60405180910390f35b34801561026657600080fd5b50610281600480360381019061027c9190611168565b6107fe565b60405161028e9190611826565b60405180910390f35b6040518060800160405280605d8152602001611b35605d913981565b60006020528060005260406000206000915054906101000a900460ff1681565b6000600260008373ffffffffffffffffffffffffffffffffffffffff1673ffffffffffffffffffffffffffffffffffffffff168152602001908152602001600020549050919050565b60004690506000604051806080016040528060528152602001611bd6605291398051906020012086866040516103539291906116ac565b6040518091039020858560405161036b9291906116ac565b604051809103902084306040516020016103899594939291906117d3565b6040516020818303038152906040529050600081805190602001209050600180600083815260200190815260200160002060006101000a81548160ff021916908315150217905550807f4bc68689cbe89a4a6333a3ab0a70093874da3e5bfb71e93102027f3f073687d8836040516104019190611826565b60405180910390a250505050505050565b61041b876108c1565b61042a8787878787878761095b565b50505050505050565b604051806080016040528060528152602001611bd66052913981565b60016020528060005260406000206000915054906101000a900460ff1681565b60005b8484905081101561057857600085858381811061048b57fe5b9050013560f81c60f81b90507f2800000000000000000000000000000000000000000000000000000000000000817effffffffffffffffffffffffffffffffffffffffffffffffffffffffffffff19161415801561052b57507f2900000000000000000000000000000000000000000000000000000000000000817effffffffffffffffffffffffffffffffffffffffffffffffffffffffffffff191614155b61056a576040517f08c379a00000000000000000000000000000000000000000000000000000000081526004016105619061190a565b60405180910390fd5b508080600101915050610472565b50600084846040518060800160405280605d8152602001611b35605d913985856040516020016105ac959493929190611706565b60405160208183030381529060405290506105c681610b39565b5050505050565b600060606105e08989898989898961095b565b6105e989610bac565b60008960c0013514806105ff5750438960c00135115b61063e576040517f08c379a0000000000000000000000000000000000000000000000000000000008152600401610635906118ca565b60405180910390fd5b6000808a604001351461065157619c4090505b60008a8060a001906106639190611965565b8c60000160208101906106769190610fd9565b604051602001610688939291906116c5565b6040516020818303038152906040529050818b60600135016040603f5a02816106ad57fe5b0410156106ef576040517f08c379a00000000000000000000000000000000000000000000000000000000081526004016106e6906118aa565b60405180910390fd5b8a60200160208101906107029190610fd9565b73ffffffffffffffffffffffffffffffffffffffff168b606001358c604001358360405161073091906116ef565b600060405180830381858888f193505050503d806000811461076e576040519150601f19603f3d011682016040523d82523d6000602084013e610773565b606091505b50809450819550505060008b60400135141580156107915750600047115b156107f0578a60000160208101906107a99190610fd9565b73ffffffffffffffffffffffffffffffffffffffff166108fc479081150290604051600060405180830381858888f193505050501580156107ee573d6000803e3d6000fd5b505b505097509795505050505050565b6060838560000160208101906108149190610fd9565b73ffffffffffffffffffffffffffffffffffffffff1686602001602081019061083d9190610fd9565b73ffffffffffffffffffffffffffffffffffffffff168760400135886060013589608001358a8060a001906108729190611965565b6040516108809291906116ac565b60405180910390208b60c001358a8a6040516020016108a89a9998979695949392919061160b565b6040516020818303038152906040529050949350505050565b8060800135600260008360000160208101906108dd9190610fd9565b73ffffffffffffffffffffffffffffffffffffffff1673ffffffffffffffffffffffffffffffffffffffff1681526020019081526020016000205414610958576040517f08c379a000000000000000000000000000000000000000000000000000000000815260040161094f9061188a565b60405180910390fd5b50565b6001600087815260200190815260200160002060009054906101000a900460ff166109bb576040517f08c379a00000000000000000000000000000000000000000000000000000000081526004016109b2906118ea565b60405180910390fd5b60008086815260200190815260200160002060009054906101000a900460ff16610a1a576040517f08c379a0000000000000000000000000000000000000000000000000000000008152600401610a119061192a565b60405180910390fd5b600086610a29898888886107fe565b80519060200120604051602001610a41929190611751565b604051602081830303815290604052805190602001209050876000016020810190610a6c9190610fd9565b73ffffffffffffffffffffffffffffffffffffffff16610ad984848080601f016020809104026020016040519081016040528093929190818152602001838380828437600081840152601f19601f8201169050808301925050505050505083610c5490919063ffffffff16565b73ffffffffffffffffffffffffffffffffffffffff1614610b2f576040517f08c379a0000000000000000000000000000000000000000000000000000000008152600401610b269061186a565b60405180910390fd5b5050505050505050565b600081805190602001209050600160008083815260200190815260200160002060006101000a81548160ff021916908315150217905550807f64d6bce64323458c44643c51fe45113efc882082f7b7fd5f09f0d69d2eedb20283604051610ba09190611848565b60405180910390a25050565b806080013560026000836000016020810190610bc89190610fd9565b73ffffffffffffffffffffffffffffffffffffffff1673ffffffffffffffffffffffffffffffffffffffff16815260200190815260200160002060008154809291906001019190505514610c51576040517f08c379a0000000000000000000000000000000000000000000000000000000008152600401610c489061188a565b60405180910390fd5b50565b60006041825114610ccd576040517f08c379a000000000000000000000000000000000000000000000000000000000815260040180806020018281038252601f8152602001807f45434453413a20696e76616c6964207369676e6174757265206c656e6774680081525060200191505060405180910390fd5b60008060006020850151925060408501519150606085015160001a9050610cf686828585610d01565b935050505092915050565b60007f7fffffffffffffffffffffffffffffff5d576e7357a4501ddfe92f46681b20a08260001c1115610d7f576040517f08c379a0000000000000000000000000000000000000000000000000000000008152600401808060200182810382526022815260200180611b926022913960400191505060405180910390fd5b601b8460ff161480610d945750601c8460ff16145b610de9576040517f08c379a0000000000000000000000000000000000000000000000000000000008152600401808060200182810382526022815260200180611bb46022913960400191505060405180910390fd5b600060018686868660405160008152602001604052604051808581526020018460ff1681526020018381526020018281526020019450505050506020604051602081039080840390855afa158015610e45573d6000803e3d6000fd5b505050602060405103519050600073ffffffffffffffffffffffffffffffffffffffff168173ffffffffffffffffffffffffffffffffffffffff161415610ef4576040517f08c379a00000000000000000000000000000000000000000000000000000000081526004018080602001828103825260188152602001807f45434453413a20696e76616c6964207369676e6174757265000000000000000081525060200191505060405180910390fd5b80915050949350505050565b600081359050610f0f81611b06565b92915050565b600081359050610f2481611b1d565b92915050565b60008083601f840112610f3c57600080fd5b8235905067ffffffffffffffff811115610f5557600080fd5b602083019150836001820283011115610f6d57600080fd5b9250929050565b60008083601f840112610f8657600080fd5b8235905067ffffffffffffffff811115610f9f57600080fd5b602083019150836001820283011115610fb757600080fd5b9250929050565b600060e08284031215610fd057600080fd5b81905092915050565b600060208284031215610feb57600080fd5b6000610ff984828501610f00565b91505092915050565b60006020828403121561101457600080fd5b600061102284828501610f15565b91505092915050565b6000806000806040858703121561104157600080fd5b600085013567ffffffffffffffff81111561105b57600080fd5b61106787828801610f74565b9450945050602085013567ffffffffffffffff81111561108657600080fd5b61109287828801610f74565b925092505092959194509250565b600080600080600080600060a0888a0312156110bb57600080fd5b600088013567ffffffffffffffff8111156110d557600080fd5b6110e18a828b01610fbe565b97505060206110f28a828b01610f15565b96505060406111038a828b01610f15565b955050606088013567ffffffffffffffff81111561112057600080fd5b61112c8a828b01610f2a565b9450945050608088013567ffffffffffffffff81111561114b57600080fd5b6111578a828b01610f2a565b925092505092959891949750929550565b6000806000806060858703121561117e57600080fd5b600085013567ffffffffffffffff81111561119857600080fd5b6111a487828801610fbe565b94505060206111b587828801610f15565b935050604085013567ffffffffffffffff8111156111d257600080fd5b6111de87828801610f2a565b925092505092959194509250565b6111f581611a1c565b82525050565b61120c61120782611a0a565b611ab0565b82525050565b61121b81611a2e565b82525050565b61122a81611a3a565b82525050565b61124161123c82611a3a565b611ac2565b82525050565b600061125383856119e3565b9350611260838584611a6e565b82840190509392505050565b6000611277826119bc565b61128181856119d2565b9350611291818560208601611a7d565b61129a81611ae8565b840191505092915050565b60006112b0826119bc565b6112ba81856119e3565b93506112ca818560208601611a7d565b80840191505092915050565b60006112e283856119ff565b93506112ef838584611a6e565b82840190509392505050565b6000611306826119c7565b61131081856119ee565b9350611320818560208601611a7d565b61132981611ae8565b840191505092915050565b600061133f826119c7565b61134981856119ff565b9350611359818560208601611a7d565b80840191505092915050565b60006113726002836119ff565b91507f19010000000000000000000000000000000000000000000000000000000000006000830152600282019050919050565b60006113b26001836119ff565b91507f2c000000000000000000000000000000000000000000000000000000000000006000830152600182019050919050565b60006113f26001836119ff565b91507f28000000000000000000000000000000000000000000000000000000000000006000830152600182019050919050565b60006114326017836119ee565b91507f4657443a207369676e6174757265206d69736d617463680000000000000000006000830152602082019050919050565b60006114726013836119ee565b91507f4657443a206e6f6e6365206d69736d61746368000000000000000000000000006000830152602082019050919050565b60006114b26015836119ee565b91507f4657443a20696e73756666696369656e742067617300000000000000000000006000830152602082019050919050565b60006114f26014836119ee565b91507f4657443a207265717565737420657870697265640000000000000000000000006000830152602082019050919050565b6000611532601d836119ee565b91507f4657443a20756e7265676973746572656420646f6d61696e207365702e0000006000830152602082019050919050565b60006115726015836119ee565b91507f4657443a20696e76616c696420747970656e616d6500000000000000000000006000830152602082019050919050565b60006115b2601a836119ee565b91507f4657443a20756e726567697374657265642074797065686173680000000000006000830152602082019050919050565b6115ee81611a64565b82525050565b61160561160082611a64565b611ade565b82525050565b6000611617828d611230565b602082019150611627828c6115f4565b602082019150611637828b6115f4565b602082019150611647828a6115f4565b60208201915061165782896115f4565b60208201915061166782886115f4565b6020820191506116778287611230565b60208201915061168782866115f4565b602082019150611698828486611247565b91508190509b9a5050505050505050505050565b60006116b9828486611247565b91508190509392505050565b60006116d2828587611247565b91506116de82846111fb565b601482019150819050949350505050565b60006116fb82846112a5565b915081905092915050565b60006117138287896112d6565b915061171e826113e5565b915061172a8286611334565b9150611735826113a5565b91506117428284866112d6565b91508190509695505050505050565b600061175c82611365565b91506117688285611230565b6020820191506117788284611230565b6020820191508190509392505050565b600060208201905061179d6000830184611212565b92915050565b60006040820190506117b86000830185611212565b81810360208301526117ca818461126c565b90509392505050565b600060a0820190506117e86000830188611221565b6117f56020830187611221565b6118026040830186611221565b61180f60608301856115e5565b61181c60808301846111ec565b9695505050505050565b60006020820190508181036000830152611840818461126c565b905092915050565b6000602082019050818103600083015261186281846112fb565b905092915050565b6000602082019050818103600083015261188381611425565b9050919050565b600060208201905081810360008301526118a381611465565b9050919050565b600060208201905081810360008301526118c3816114a5565b9050919050565b600060208201905081810360008301526118e3816114e5565b9050919050565b6000602082019050818103600083015261190381611525565b9050919050565b6000602082019050818103600083015261192381611565565b9050919050565b60006020820190508181036000830152611943816115a5565b9050919050565b600060208201905061195f60008301846115e5565b92915050565b6000808335600160200384360303811261197e57600080fd5b80840192508235915067ffffffffffffffff82111561199c57600080fd5b6020830192506001820236038313156119b457600080fd5b509250929050565b600081519050919050565b600081519050919050565b600082825260208201905092915050565b600081905092915050565b600082825260208201905092915050565b600081905092915050565b6000611a1582611a44565b9050919050565b6000611a2782611a44565b9050919050565b60008115159050919050565b6000819050919050565b600073ffffffffffffffffffffffffffffffffffffffff82169050919050565b6000819050919050565b82818337600083830152505050565b60005b83811015611a9b578082015181840152602081019050611a80565b83811115611aaa576000848401525b50505050565b6000611abb82611acc565b9050919050565b6000819050919050565b6000611ad782611af9565b9050919050565b6000819050919050565b6000601f19601f8301169050919050565b60008160601b9050919050565b611b0f81611a0a565b8114611b1a57600080fd5b50565b611b2681611a3a565b8114611b3157600080fd5b5056fe616464726573732066726f6d2c6164647265737320746f2c75696e743235362076616c75652c75696e74323536206761732c75696e74323536206e6f6e63652c627974657320646174612c75696e743235362076616c6964556e74696c45434453413a20696e76616c6964207369676e6174757265202773272076616c756545434453413a20696e76616c6964207369676e6174757265202776272076616c7565454950373132446f6d61696e28737472696e67206e616d652c737472696e672076657273696f6e2c75696e7432353620636861696e49642c6164647265737320766572696679696e67436f6e747261637429a2646970667358221220c432eeaac3a130341de65757fc0e26421025a624a6600056d0103d04836b0e3264736f6c63430007060033616464726573732066726f6d2c6164647265737320746f2c75696e743235362076616c75652c75696e74323536206761732c75696e74323536206e6f6e63652c627974657320646174612c75696e743235362076616c6964556e74696c",
  "immutableReferences": {},
  "source": "// SPDX-License-Identifier: GPL-3.0-only\npragma solidity ^0.7.6;\npragma abicoder v2;\n\nimport \"@openzeppelin/contracts/cryptography/ECDSA.sol\";\nimport \"./IForwarder.sol\";\n\ncontract Forwarder is IForwarder {\n    using ECDSA for bytes32;\n\n    string public constant GENERIC_PARAMS = \"address from,address to,uint256 value,uint256 gas,uint256 nonce,bytes data,uint256 validUntil\";\n\n    string public constant EIP712_DOMAIN_TYPE = \"EIP712Domain(string name,string version,uint256 chainId,address verifyingContract)\";\n\n    mapping(bytes32 => bool) public typeHashes;\n    mapping(bytes32 => bool) public domains;\n\n    // Nonces of senders, used to prevent replay attacks\n    mapping(address => uint256) private nonces;\n\n    // solhint-disable-next-line no-empty-blocks\n    receive() external payable {}\n\n    function getNonce(address from)\n    public view override\n    returns (uint256) {\n        return nonces[from];\n    }\n\n    constructor() {\n\n        string memory requestType = string(abi.encodePacked(\"ForwardRequest(\", GENERIC_PARAMS, \")\"));\n        registerRequestTypeInternal(requestType);\n    }\n\n    function verify(\n        ForwardRequest calldata req,\n        bytes32 domainSeparator,\n        bytes32 requestTypeHash,\n        bytes calldata suffixData,\n        bytes calldata sig)\n    external override view {\n\n        _verifyNonce(req);\n        _verifySig(req, domainSeparator, requestTypeHash, suffixData, sig);\n    }\n\n    function execute(\n        ForwardRequest calldata req,\n        bytes32 domainSeparator,\n        bytes32 requestTypeHash,\n        bytes calldata suffixData,\n        bytes calldata sig\n    )\n    external payable\n    override\n    returns (bool success, bytes memory ret) {\n        _verifySig(req, domainSeparator, requestTypeHash, suffixData, sig);\n        _verifyAndUpdateNonce(req);\n\n        require(req.validUntil == 0 || req.validUntil > block.number, \"FWD: request expired\");\n\n        uint gasForTransfer = 0;\n        if ( req.value != 0 ) {\n            gasForTransfer = 40000; //buffer in case we need to move eth after the transaction.\n        }\n        bytes memory callData = abi.encodePacked(req.data, req.from);\n        require(gasleft()*63/64 >= req.gas + gasForTransfer, \"FWD: insufficient gas\");\n        // solhint-disable-next-line avoid-low-level-calls\n        (success,ret) = req.to.call{gas : req.gas, value : req.value}(callData);\n        if ( req.value != 0 && address(this).balance>0 ) {\n            // can't fail: req.from signed (off-chain) the request, so it must be an EOA...\n            payable(req.from).transfer(address(this).balance);\n        }\n\n        return (success,ret);\n    }\n\n\n    function _verifyNonce(ForwardRequest calldata req) internal view {\n        require(nonces[req.from] == req.nonce, \"FWD: nonce mismatch\");\n    }\n\n    function _verifyAndUpdateNonce(ForwardRequest calldata req) internal {\n        require(nonces[req.from]++ == req.nonce, \"FWD: nonce mismatch\");\n    }\n\n    function registerRequestType(string calldata typeName, string calldata typeSuffix) external override {\n\n        for (uint i = 0; i < bytes(typeName).length; i++) {\n            bytes1 c = bytes(typeName)[i];\n            require(c != \"(\" && c != \")\", \"FWD: invalid typename\");\n        }\n\n        string memory requestType = string(abi.encodePacked(typeName, \"(\", GENERIC_PARAMS, \",\", typeSuffix));\n        registerRequestTypeInternal(requestType);\n    }\n\n    function registerDomainSeparator(string calldata name, string calldata version) external override {\n        uint256 chainId;\n        /* solhint-disable-next-line no-inline-assembly */\n        assembly { chainId := chainid() }\n\n        bytes memory domainValue = abi.encode(\n            keccak256(bytes(EIP712_DOMAIN_TYPE)),\n            keccak256(bytes(name)),\n            keccak256(bytes(version)),\n            chainId,\n            address(this));\n\n        bytes32 domainHash = keccak256(domainValue);\n\n        domains[domainHash] = true;\n        emit DomainRegistered(domainHash, domainValue);\n    }\n\n    function registerRequestTypeInternal(string memory requestType) internal {\n\n        bytes32 requestTypehash = keccak256(bytes(requestType));\n        typeHashes[requestTypehash] = true;\n        emit RequestTypeRegistered(requestTypehash, requestType);\n    }\n\n    function _verifySig(\n        ForwardRequest calldata req,\n        bytes32 domainSeparator,\n        bytes32 requestTypeHash,\n        bytes calldata suffixData,\n        bytes calldata sig)\n    internal\n    view\n    {\n        require(domains[domainSeparator], \"FWD: unregistered domain sep.\");\n        require(typeHashes[requestTypeHash], \"FWD: unregistered typehash\");\n        bytes32 digest = keccak256(abi.encodePacked(\n                \"\\x19\\x01\", domainSeparator,\n                keccak256(_getEncoded(req, requestTypeHash, suffixData))\n            ));\n        require(digest.recover(sig) == req.from, \"FWD: signature mismatch\");\n    }\n\n    function _getEncoded(\n        ForwardRequest calldata req,\n        bytes32 requestTypeHash,\n        bytes calldata suffixData\n    )\n    public\n    pure\n    returns (\n        bytes memory\n    ) {\n        // we use encodePacked since we append suffixData as-is, not as dynamic param.\n        // still, we must make sure all first params are encoded as abi.encode()\n        // would encode them - as 256-bit-wide params.\n        return abi.encodePacked(\n            requestTypeHash,\n            uint256(uint160(req.from)),\n            uint256(uint160(req.to)),\n            req.value,\n            req.gas,\n            req.nonce,\n            keccak256(req.data),\n            req.validUntil,\n            suffixData\n        );\n    }\n}\n",
  "sourcePath": "@opengsn/contracts/src/forwarder/Forwarder.sol",
  "compiler": {
    "name": "solc",
    "version": "0.7.6+commit.7338295f.Emscripten.clang"
  },
  "schemaVersion": "3.4.3",
  "updatedAt": "2022-06-13T00:19:46.990Z",
  "networkType": "ethereum",
  "devdoc": {
    "kind": "dev",
    "methods": {
      "registerDomainSeparator(string,string)": {
        "params": {
          "name": "the domain's display name",
          "version": "the domain/protocol version"
        }
      },
      "registerRequestType(string,string)": {
        "params": {
          "typeName": "- the name of the request type.",
          "typeSuffix": "- any extra data after the generic params.  (must add at least one param. The generic ForwardRequest type is always registered by the constructor)"
        }
      }
    },
    "version": 1
  },
  "userdoc": {
    "kind": "user",
    "methods": {
      "registerDomainSeparator(string,string)": {
        "notice": "Register a new domain separator. The domain separator must have the following fields: name,version,chainId, verifyingContract. the chainId is the current network's chainId, and the verifyingContract is this forwarder. This method is given the domain name and version to create and register the domain separator value."
      },
      "registerRequestType(string,string)": {
        "notice": "Register a new Request typehash."
      }
    },
    "version": 1
  }
}