{
  "contractName": "ParcelMigrator",
  "abi": [
    {
      "inputs": [
        {
          "internalType": "address",
          "name": "_old",
          "type": "address"
        },
        {
          "internalType": "address",
          "name": "_new",
          "type": "address"
        },
        {
          "internalType": "address",
          "name": "_forwarder",
          "type": "address"
        }
      ],
      "stateMutability": "nonpayable",
      "type": "constructor"
    },
    {
      "anonymous": false,
      "inputs": [
        {
          "indexed": true,
          "internalType": "address",
          "name": "previousOwner",
          "type": "address"
        },
        {
          "indexed": true,
          "internalType": "address",
          "name": "newOwner",
          "type": "address"
        }
      ],
      "name": "OwnershipTransferred",
      "type": "event"
    },
    {
      "anonymous": false,
      "inputs": [
        {
          "indexed": false,
          "internalType": "address",
          "name": "account",
          "type": "address"
        }
      ],
      "name": "Paused",
      "type": "event"
    },
    {
      "anonymous": false,
      "inputs": [
        {
          "indexed": false,
          "internalType": "address",
          "name": "account",
          "type": "address"
        }
      ],
      "name": "Unpaused",
      "type": "event"
    },
    {
      "inputs": [],
      "name": "count",
      "outputs": [
        {
          "internalType": "uint256",
          "name": "",
          "type": "uint256"
        }
      ],
      "stateMutability": "view",
      "type": "function",
      "constant": true
    },
    {
      "inputs": [
        {
          "internalType": "address",
          "name": "forwarder",
          "type": "address"
        }
      ],
      "name": "isTrustedForwarder",
      "outputs": [
        {
          "internalType": "bool",
          "name": "",
          "type": "bool"
        }
      ],
      "stateMutability": "view",
      "type": "function",
      "constant": true
    },
    {
      "inputs": [],
      "name": "owner",
      "outputs": [
        {
          "internalType": "address",
          "name": "",
          "type": "address"
        }
      ],
      "stateMutability": "view",
      "type": "function",
      "constant": true
    },
    {
      "inputs": [],
      "name": "paused",
      "outputs": [
        {
          "internalType": "bool",
          "name": "",
          "type": "bool"
        }
      ],
      "stateMutability": "view",
      "type": "function",
      "constant": true
    },
    {
      "inputs": [],
      "name": "renounceOwnership",
      "outputs": [],
      "stateMutability": "nonpayable",
      "type": "function"
    },
    {
      "inputs": [
        {
          "internalType": "address",
          "name": "newOwner",
          "type": "address"
        }
      ],
      "name": "transferOwnership",
      "outputs": [],
      "stateMutability": "nonpayable",
      "type": "function"
    },
    {
      "inputs": [],
      "name": "trustedForwarder",
      "outputs": [
        {
          "internalType": "address",
          "name": "",
          "type": "address"
        }
      ],
      "stateMutability": "view",
      "type": "function",
      "constant": true
    },
    {
      "inputs": [],
      "name": "versionRecipient",
      "outputs": [
        {
          "internalType": "string",
          "name": "",
          "type": "string"
        }
      ],
      "stateMutability": "view",
      "type": "function",
      "constant": true
    },
    {
      "inputs": [],
      "name": "increaseCount",
      "outputs": [],
      "stateMutability": "nonpayable",
      "type": "function"
    },
    {
      "inputs": [],
      "name": "isApproved",
      "outputs": [
        {
          "internalType": "bool",
          "name": "",
          "type": "bool"
        }
      ],
      "stateMutability": "view",
      "type": "function",
      "constant": true
    },
    {
      "inputs": [
        {
          "internalType": "uint256[]",
          "name": "_tokenIds",
          "type": "uint256[]"
        }
      ],
      "name": "migrate",
      "outputs": [],
      "stateMutability": "nonpayable",
      "type": "function"
    },
    {
      "inputs": [
        {
          "internalType": "uint256",
          "name": "_tokenId",
          "type": "uint256"
        }
      ],
      "name": "migrated",
      "outputs": [
        {
          "internalType": "bool",
          "name": "",
          "type": "bool"
        }
      ],
      "stateMutability": "view",
      "type": "function",
      "constant": true
    }
  ],
  "bytecode": "0x60806040526040518060400160405280600581526020017f322e322e3500000000000000000000000000000000000000000000000000000081525060029080519060200190620000519291906200031b565b503480156200005f57600080fd5b5060405162001ba738038062001ba7833981810160405281019062000085919062000435565b620000a5620000996200015b60201b60201c565b6200017760201b60201c565b60008060146101000a81548160ff02191690831515021790555082600360006101000a81548173ffffffffffffffffffffffffffffffffffffffff021916908373ffffffffffffffffffffffffffffffffffffffff16021790555081600460006101000a81548173ffffffffffffffffffffffffffffffffffffffff021916908373ffffffffffffffffffffffffffffffffffffffff16021790555062000152816200023b60201b60201c565b505050620004f5565b6000620001726200027f60201b620008661760201c565b905090565b60008060009054906101000a900473ffffffffffffffffffffffffffffffffffffffff169050816000806101000a81548173ffffffffffffffffffffffffffffffffffffffff021916908373ffffffffffffffffffffffffffffffffffffffff1602179055508173ffffffffffffffffffffffffffffffffffffffff168173ffffffffffffffffffffffffffffffffffffffff167f8be0079c531659141344cd1fd0a4f28419497f9722a3daafe3b4186f6b6457e060405160405180910390a35050565b80600160006101000a81548173ffffffffffffffffffffffffffffffffffffffff021916908373ffffffffffffffffffffffffffffffffffffffff16021790555050565b60006014600036905010158015620002a45750620002a333620002c160201b60201c565b5b15620002ba57601436033560601c9050620002be565b3390505b90565b6000600160009054906101000a900473ffffffffffffffffffffffffffffffffffffffff1673ffffffffffffffffffffffffffffffffffffffff168273ffffffffffffffffffffffffffffffffffffffff16149050919050565b8280546200032990620004c0565b90600052602060002090601f0160209004810192826200034d576000855562000399565b82601f106200036857805160ff191683800117855562000399565b8280016001018555821562000399579182015b82811115620003985782518255916020019190600101906200037b565b5b509050620003a89190620003ac565b5090565b5b80821115620003c7576000816000905550600101620003ad565b5090565b600080fd5b600073ffffffffffffffffffffffffffffffffffffffff82169050919050565b6000620003fd82620003d0565b9050919050565b6200040f81620003f0565b81146200041b57600080fd5b50565b6000815190506200042f8162000404565b92915050565b600080600060608486031215620004515762000450620003cb565b5b600062000461868287016200041e565b935050602062000474868287016200041e565b925050604062000487868287016200041e565b9150509250925092565b7f4e487b7100000000000000000000000000000000000000000000000000000000600052602260045260246000fd5b60006002820490506001821680620004d957607f821691505b602082108103620004ef57620004ee62000491565b5b50919050565b6116a280620005056000396000f3fe608060405234801561001057600080fd5b50600436106100b45760003560e01c8063715018a611610071578063715018a6146101915780637da0a8771461019b5780638da5cb5b146101b9578063abd1b73d146101d7578063d93bf4fe146101e1578063f2fde38b146101fd576100b4565b806306661abd146100b95780630e359f16146100d757806328f371aa14610107578063486ff0cd14610125578063572b6c05146101435780635c975abb14610173575b600080fd5b6100c1610219565b6040516100ce9190610ce4565b60405180910390f35b6100f160048036038101906100ec9190610d35565b61021f565b6040516100fe9190610d7d565b60405180910390f35b61010f6102fd565b60405161011c9190610d7d565b60405180910390f35b61012d6103a9565b60405161013a9190610e31565b60405180910390f35b61015d60048036038101906101589190610eb1565b610437565b60405161016a9190610d7d565b60405180910390f35b61017b610491565b6040516101889190610d7d565b60405180910390f35b6101996104a7565b005b6101a361052f565b6040516101b09190610eed565b60405180910390f35b6101c1610559565b6040516101ce9190610eed565b60405180910390f35b6101df610582565b005b6101fb60048036038101906101f69190610f6d565b61059e565b005b61021760048036038101906102129190610eb1565b61076f565b005b60055481565b6000600460009054906101000a900473ffffffffffffffffffffffffffffffffffffffff1673ffffffffffffffffffffffffffffffffffffffff16636352211e836040518263ffffffff1660e01b815260040161027c9190610ce4565b602060405180830381865afa9250505080156102b657506040513d601f19601f820116820180604052508101906102b39190610fcf565b60015b6102c357600090506102f8565b600073ffffffffffffffffffffffffffffffffffffffff168173ffffffffffffffffffffffffffffffffffffffff1614159150505b919050565b6000600360009054906101000a900473ffffffffffffffffffffffffffffffffffffffff1673ffffffffffffffffffffffffffffffffffffffff1663e985e9c561034561089d565b306040518363ffffffff1660e01b8152600401610363929190610ffc565b602060405180830381865afa158015610380573d6000803e3d6000fd5b505050506040513d601f19601f820116820180604052508101906103a49190611051565b905090565b600280546103b6906110ad565b80601f01602080910402602001604051908101604052809291908181526020018280546103e2906110ad565b801561042f5780601f106104045761010080835404028352916020019161042f565b820191906000526020600020905b81548152906001019060200180831161041257829003601f168201915b505050505081565b6000600160009054906101000a900473ffffffffffffffffffffffffffffffffffffffff1673ffffffffffffffffffffffffffffffffffffffff168273ffffffffffffffffffffffffffffffffffffffff16149050919050565b60008060149054906101000a900460ff16905090565b6104af61089d565b73ffffffffffffffffffffffffffffffffffffffff166104cd610559565b73ffffffffffffffffffffffffffffffffffffffff1614610523576040517f08c379a000000000000000000000000000000000000000000000000000000000815260040161051a9061112a565b60405180910390fd5b61052d60006108ac565b565b6000600160009054906101000a900473ffffffffffffffffffffffffffffffffffffffff16905090565b60008060009054906101000a900473ffffffffffffffffffffffffffffffffffffffff16905090565b6001600560008282546105959190611179565b92505081905550565b6105a6610491565b156105e6576040517f08c379a00000000000000000000000000000000000000000000000000000000081526004016105dd9061121b565b60405180910390fd5b60005b8282905081101561076a5760008383838181106106095761060861123b565b5b90506020020135905061061a61089d565b73ffffffffffffffffffffffffffffffffffffffff16600360009054906101000a900473ffffffffffffffffffffffffffffffffffffffff1673ffffffffffffffffffffffffffffffffffffffff16636352211e836040518263ffffffff1660e01b815260040161068b9190610ce4565b602060405180830381865afa1580156106a8573d6000803e3d6000fd5b505050506040513d601f19601f820116820180604052508101906106cc9190610fcf565b73ffffffffffffffffffffffffffffffffffffffff16146106ec82610970565b6040516020016106fc91906112f2565b6040516020818303038152906040529061074c576040517f08c379a00000000000000000000000000000000000000000000000000000000081526004016107439190610e31565b60405180910390fd5b5061075681610ad0565b50808061076290611314565b9150506105e9565b505050565b61077761089d565b73ffffffffffffffffffffffffffffffffffffffff16610795610559565b73ffffffffffffffffffffffffffffffffffffffff16146107eb576040517f08c379a00000000000000000000000000000000000000000000000000000000081526004016107e29061112a565b60405180910390fd5b600073ffffffffffffffffffffffffffffffffffffffff168173ffffffffffffffffffffffffffffffffffffffff160361085a576040517f08c379a0000000000000000000000000000000000000000000000000000000008152600401610851906113ce565b60405180910390fd5b610863816108ac565b50565b60006014600036905010158015610882575061088133610437565b5b1561089657601436033560601c905061089a565b3390505b90565b60006108a7610866565b905090565b60008060009054906101000a900473ffffffffffffffffffffffffffffffffffffffff169050816000806101000a81548173ffffffffffffffffffffffffffffffffffffffff021916908373ffffffffffffffffffffffffffffffffffffffff1602179055508173ffffffffffffffffffffffffffffffffffffffff168173ffffffffffffffffffffffffffffffffffffffff167f8be0079c531659141344cd1fd0a4f28419497f9722a3daafe3b4186f6b6457e060405160405180910390a35050565b6060600082036109b7576040518060400160405280600181526020017f30000000000000000000000000000000000000000000000000000000000000008152509050610acb565b600082905060005b600082146109e95780806109d290611314565b915050600a826109e2919061141d565b91506109bf565b60008167ffffffffffffffff811115610a0557610a0461144e565b5b6040519080825280601f01601f191660200182016040528015610a375781602001600182028036833780820191505090505b5090505b60008514610ac457600182610a50919061147d565b9150600a85610a5f91906114b1565b6030610a6b9190611179565b60f81b818381518110610a8157610a8061123b565b5b60200101907effffffffffffffffffffffffffffffffffffffffffffffffffffffffffffff1916908160001a905350600a85610abd919061141d565b9450610a3b565b8093505050505b919050565b600080600080600080600360009054906101000a900473ffffffffffffffffffffffffffffffffffffffff1673ffffffffffffffffffffffffffffffffffffffff16637fef21d4886040518263ffffffff1660e01b8152600401610b349190610ce4565b60c060405180830381865afa158015610b51573d6000803e3d6000fd5b505050506040513d601f19601f82011682018060405250810190610b75919061151b565b955095509550955095509550600360009054906101000a900473ffffffffffffffffffffffffffffffffffffffff1673ffffffffffffffffffffffffffffffffffffffff166342842e0e610bc761089d565b610bcf610559565b8a6040518463ffffffff1660e01b8152600401610bee939291906115a8565b600060405180830381600087803b158015610c0857600080fd5b505af1158015610c1c573d6000803e3d6000fd5b50505050600460009054906101000a900473ffffffffffffffffffffffffffffffffffffffff1673ffffffffffffffffffffffffffffffffffffffff16633ea61b79610c6661089d565b898989898989896040518963ffffffff1660e01b8152600401610c909897969594939291906115ee565b600060405180830381600087803b158015610caa57600080fd5b505af1158015610cbe573d6000803e3d6000fd5b5050505050505050505050565b6000819050919050565b610cde81610ccb565b82525050565b6000602082019050610cf96000830184610cd5565b92915050565b600080fd5b600080fd5b610d1281610ccb565b8114610d1d57600080fd5b50565b600081359050610d2f81610d09565b92915050565b600060208284031215610d4b57610d4a610cff565b5b6000610d5984828501610d20565b91505092915050565b60008115159050919050565b610d7781610d62565b82525050565b6000602082019050610d926000830184610d6e565b92915050565b600081519050919050565b600082825260208201905092915050565b60005b83811015610dd2578082015181840152602081019050610db7565b83811115610de1576000848401525b50505050565b6000601f19601f8301169050919050565b6000610e0382610d98565b610e0d8185610da3565b9350610e1d818560208601610db4565b610e2681610de7565b840191505092915050565b60006020820190508181036000830152610e4b8184610df8565b905092915050565b600073ffffffffffffffffffffffffffffffffffffffff82169050919050565b6000610e7e82610e53565b9050919050565b610e8e81610e73565b8114610e9957600080fd5b50565b600081359050610eab81610e85565b92915050565b600060208284031215610ec757610ec6610cff565b5b6000610ed584828501610e9c565b91505092915050565b610ee781610e73565b82525050565b6000602082019050610f026000830184610ede565b92915050565b600080fd5b600080fd5b600080fd5b60008083601f840112610f2d57610f2c610f08565b5b8235905067ffffffffffffffff811115610f4a57610f49610f0d565b5b602083019150836020820283011115610f6657610f65610f12565b5b9250929050565b60008060208385031215610f8457610f83610cff565b5b600083013567ffffffffffffffff811115610fa257610fa1610d04565b5b610fae85828601610f17565b92509250509250929050565b600081519050610fc981610e85565b92915050565b600060208284031215610fe557610fe4610cff565b5b6000610ff384828501610fba565b91505092915050565b60006040820190506110116000830185610ede565b61101e6020830184610ede565b9392505050565b61102e81610d62565b811461103957600080fd5b50565b60008151905061104b81611025565b92915050565b60006020828403121561106757611066610cff565b5b60006110758482850161103c565b91505092915050565b7f4e487b7100000000000000000000000000000000000000000000000000000000600052602260045260246000fd5b600060028204905060018216806110c557607f821691505b6020821081036110d8576110d761107e565b5b50919050565b7f4f776e61626c653a2063616c6c6572206973206e6f7420746865206f776e6572600082015250565b6000611114602083610da3565b915061111f826110de565b602082019050919050565b6000602082019050818103600083015261114381611107565b9050919050565b7f4e487b7100000000000000000000000000000000000000000000000000000000600052601160045260246000fd5b600061118482610ccb565b915061118f83610ccb565b9250827fffffffffffffffffffffffffffffffffffffffffffffffffffffffffffffffff038211156111c4576111c361114a565b5b828201905092915050565b7f5061757361626c653a2070617573656400000000000000000000000000000000600082015250565b6000611205601083610da3565b9150611210826111cf565b602082019050919050565b60006020820190508181036000830152611234816111f8565b9050919050565b7f4e487b7100000000000000000000000000000000000000000000000000000000600052603260045260246000fd5b600081905092915050565b7f596f7520646f6e74206f776e2070617263656c20000000000000000000000000600082015250565b60006112ab60148361126a565b91506112b682611275565b601482019050919050565b60006112cc82610d98565b6112d6818561126a565b93506112e6818560208601610db4565b80840191505092915050565b60006112fd8261129e565b915061130982846112c1565b915081905092915050565b600061131f82610ccb565b91507fffffffffffffffffffffffffffffffffffffffffffffffffffffffffffffffff82036113515761135061114a565b5b600182019050919050565b7f4f776e61626c653a206e6577206f776e657220697320746865207a65726f206160008201527f6464726573730000000000000000000000000000000000000000000000000000602082015250565b60006113b8602683610da3565b91506113c38261135c565b604082019050919050565b600060208201905081810360008301526113e7816113ab565b9050919050565b7f4e487b7100000000000000000000000000000000000000000000000000000000600052601260045260246000fd5b600061142882610ccb565b915061143383610ccb565b925082611443576114426113ee565b5b828204905092915050565b7f4e487b7100000000000000000000000000000000000000000000000000000000600052604160045260246000fd5b600061148882610ccb565b915061149383610ccb565b9250828210156114a6576114a561114a565b5b828203905092915050565b60006114bc82610ccb565b91506114c783610ccb565b9250826114d7576114d66113ee565b5b828206905092915050565b60008160010b9050919050565b6114f8816114e2565b811461150357600080fd5b50565b600081519050611515816114ef565b92915050565b60008060008060008060c0878903121561153857611537610cff565b5b600061154689828a01611506565b965050602061155789828a01611506565b955050604061156889828a01611506565b945050606061157989828a01611506565b935050608061158a89828a01611506565b92505060a061159b89828a01611506565b9150509295509295509295565b60006060820190506115bd6000830186610ede565b6115ca6020830185610ede565b6115d76040830184610cd5565b949350505050565b6115e8816114e2565b82525050565b600061010082019050611604600083018b610ede565b611611602083018a610cd5565b61161e60408301896115df565b61162b60608301886115df565b61163860808301876115df565b61164560a08301866115df565b61165260c08301856115df565b61165f60e08301846115df565b999850505050505050505056fea2646970667358221220a4e5ed4115295555ff886ab581e15000aa6caefb74becfa27a9b3e64497fb8c764736f6c634300080e0033",
  "immutableReferences": {},
  "source": "//SPDX-License-Identifier: MIT\npragma solidity ^0.8.4;\n\nimport \"@openzeppelin/contracts/access/Ownable.sol\";\nimport \"@openzeppelin/contracts/security/Pausable.sol\";\nimport \"@openzeppelin/contracts/token/ERC721/IERC721.sol\";\nimport \"@opengsn/contracts/src/BaseRelayRecipient.sol\";\nimport \"@openzeppelin/contracts/utils/Strings.sol\";\n\ninterface IParcel {\n    function safeTransferFrom(\n        address from,\n        address to,\n        uint256 tokenId\n    ) external;\n\n    function mint(\n        address _to,\n        uint256 _tokenId,\n        int16 x1,\n        int16 y1,\n        int16 z1,\n        int16 x2,\n        int16 y2,\n        int16 z2\n    ) external;\n\n    function getBoundingBox(uint256 _tokenId)\n        external\n        view\n        returns (\n            int16,\n            int16,\n            int16,\n            int16,\n            int16,\n            int16\n        );\n}\n\ncontract ParcelMigrator is Ownable, Pausable, BaseRelayRecipient {\n    using Strings for uint256;\n    /// BoundingBox of the parcel\n    struct BoundingBox {\n        int16 x1;\n        int16 y1;\n        int16 z1;\n        int16 x2;\n        int16 y2;\n        int16 z2;\n    }\n    // OpenGSN versionRecipient\n    string public override versionRecipient = \"2.2.5\";\n\n    /// @dev old parcel contract implementation\n    address private _oldImpl;\n    /// @dev new parcel contract implementation\n    address private _newImpl;\n    uint256 public count;\n    /**\n     * Constructor\n     * @param _forwarder is a trusted forwarder to allow Cryptovoxels to pay for the gas-fees.\n     * @param _old old parcel contract implementation\n     * @param _new old parcel contract implementation\n     */\n    constructor(\n        address _old,\n        address _new,\n        address _forwarder\n    ) {\n        _oldImpl = _old;\n        _newImpl = _new;\n        _setTrustedForwarder(_forwarder);\n    }\n\n    function increaseCount() public{\n        count += 1;\n    }\n\n    /**\n     * @notice Checks if caller approved this migrator to transfer his old parcels\n     * @dev _oldImplementation needs to be set.\n     * @return boolean\n     */\n    function isApproved() public view returns (bool) {\n        return IERC721(_oldImpl).isApprovedForAll(_msgSender(), address(this));\n    }\n\n    /**\n     * @notice Migrate the list of parcels (by token Id) to the new smart contract\n     * @dev Iterate through the list of parcels, checks ownership of the given tokenId and calls transferMint()\n     * @param _tokenIds list of token Ids to migrate\n     */\n    function migrate(uint256[] calldata _tokenIds) public whenNotPaused {\n        for (uint256 i = 0; i < _tokenIds.length; i++) {\n            uint256 _id = _tokenIds[i];\n            require(\n                IERC721(_oldImpl).ownerOf(_id) == _msgSender(),\n                string(abi.encodePacked(\"You dont own parcel \", _id.toString()))\n            );\n            transferAndMint(_id);\n        }\n    }\n\n    /// @dev Allow paymaster to pay for the gas-fees\n    /// see https://docs.opengsn.org/contracts/#install-opengsn-contracts\n    function _msgSender()\n        internal\n        view\n        override(Context, BaseRelayRecipient)\n        returns (address ret)\n    {\n        return BaseRelayRecipient._msgSender();\n    }\n\n    /// @dev Allow paymaster to pay for the gas-fees\n    /// see https://docs.opengsn.org/contracts/#install-opengsn-contracts\n    function _msgData()\n        internal\n        view\n        override(Context, BaseRelayRecipient)\n        returns (bytes calldata ret)\n    {\n        return BaseRelayRecipient._msgData();\n    }\n\n    /**\n     * @notice Transfers the old parcel to the old parcel contract owner and mints a new parcel on the new parcel contract.\n     * @dev For this method to work, the Migrator contract needs to be set as owner of the new Parcel contract;\n     */\n    function transferAndMint(uint256 _id) internal {\n        (int16 x1, int16 y1, int16 z1, int16 x2, int16 y2, int16 z2) = IParcel(\n            _oldImpl\n        ).getBoundingBox(_id);\n\n        IParcel(_oldImpl).safeTransferFrom(_msgSender(), owner(), _id);\n        IParcel(_newImpl).mint(_msgSender(), _id, x1, y1, z1, x2, y2, z2);\n    }\n\n    /**\n     * @notice Tells us if parcel has been migrated\n     * @dev We know `ownerOf` will revert if the token doesn't exist; and we know the owner of a parcel can't be the Zero address, so we use ownerOf as a proxy.\n     * @param _tokenId a parcel's token id\n     */\n    function migrated(uint256 _tokenId) public view returns (bool) {\n       try IERC721(_newImpl).ownerOf(_tokenId) returns (address _owner){\n           return _owner != address(0);\n       }catch{\n           return false;\n       }\n    }\n}\n",
  "sourcePath": "/Users/talent/Documents/Voxels/parcel-migration/contracts/parcelMigrator.sol",
  "compiler": {
    "name": "solc",
    "version": "0.8.14+commit.80d49f37.Emscripten.clang"
  },
  "schemaVersion": "3.4.3",
  "updatedAt": "2022-06-13T00:43:48.480Z",
  "networkType": "ethereum",
  "devdoc": {
    "kind": "dev",
    "methods": {
      "constructor": {
        "params": {
          "_forwarder": "is a trusted forwarder to allow Cryptovoxels to pay for the gas-fees.",
          "_new": "old parcel contract implementation",
          "_old": "old parcel contract implementation"
        }
      },
      "isApproved()": {
        "details": "_oldImplementation needs to be set.",
        "returns": {
          "_0": "boolean"
        }
      },
      "migrate(uint256[])": {
        "details": "Iterate through the list of parcels, checks ownership of the given tokenId and calls transferMint()",
        "params": {
          "_tokenIds": "list of token Ids to migrate"
        }
      },
      "migrated(uint256)": {
        "details": "We know `ownerOf` will revert if the token doesn't exist; and we know the owner of a parcel can't be the Zero address, so we use ownerOf as a proxy.",
        "params": {
          "_tokenId": "a parcel's token id"
        }
      },
      "owner()": {
        "details": "Returns the address of the current owner."
      },
      "paused()": {
        "details": "Returns true if the contract is paused, and false otherwise."
      },
      "renounceOwnership()": {
        "details": "Leaves the contract without owner. It will not be possible to call `onlyOwner` functions anymore. Can only be called by the current owner. NOTE: Renouncing ownership will leave the contract without an owner, thereby removing any functionality that is only available to the owner."
      },
      "transferOwnership(address)": {
        "details": "Transfers ownership of the contract to a new account (`newOwner`). Can only be called by the current owner."
      }
    },
    "stateVariables": {
      "_newImpl": {
        "details": "new parcel contract implementation"
      },
      "_oldImpl": {
        "details": "old parcel contract implementation"
      }
    },
    "version": 1
  },
  "userdoc": {
    "kind": "user",
    "methods": {
      "constructor": {
        "notice": "Constructor"
      },
      "isApproved()": {
        "notice": "Checks if caller approved this migrator to transfer his old parcels"
      },
      "isTrustedForwarder(address)": {
        "notice": "return if the forwarder is trusted to forward relayed transactions to us. the forwarder is required to verify the sender's signature, and verify the call is not a replay."
      },
      "migrate(uint256[])": {
        "notice": "Migrate the list of parcels (by token Id) to the new smart contract"
      },
      "migrated(uint256)": {
        "notice": "Tells us if parcel has been migrated"
      }
    },
    "version": 1
  }
}