{
  "contractName": "Parcel",
  "abi": [
    {
      "inputs": [],
      "stateMutability": "nonpayable",
      "type": "constructor"
    },
    {
      "anonymous": false,
      "inputs": [
        {
          "indexed": true,
          "internalType": "address",
          "name": "owner",
          "type": "address"
        },
        {
          "indexed": true,
          "internalType": "address",
          "name": "approved",
          "type": "address"
        },
        {
          "indexed": true,
          "internalType": "uint256",
          "name": "tokenId",
          "type": "uint256"
        }
      ],
      "name": "Approval",
      "type": "event"
    },
    {
      "anonymous": false,
      "inputs": [
        {
          "indexed": true,
          "internalType": "address",
          "name": "owner",
          "type": "address"
        },
        {
          "indexed": true,
          "internalType": "address",
          "name": "operator",
          "type": "address"
        },
        {
          "indexed": false,
          "internalType": "bool",
          "name": "approved",
          "type": "bool"
        }
      ],
      "name": "ApprovalForAll",
      "type": "event"
    },
    {
      "anonymous": false,
      "inputs": [
        {
          "indexed": true,
          "internalType": "address",
          "name": "owner",
          "type": "address"
        },
        {
          "indexed": true,
          "internalType": "address",
          "name": "consumer",
          "type": "address"
        },
        {
          "indexed": true,
          "internalType": "uint256",
          "name": "tokenId",
          "type": "uint256"
        }
      ],
      "name": "ConsumerChanged",
      "type": "event"
    },
    {
      "anonymous": false,
      "inputs": [
        {
          "indexed": true,
          "internalType": "address",
          "name": "previousOwner",
          "type": "address"
        },
        {
          "indexed": true,
          "internalType": "address",
          "name": "newOwner",
          "type": "address"
        }
      ],
      "name": "OwnershipTransferred",
      "type": "event"
    },
    {
      "anonymous": false,
      "inputs": [
        {
          "indexed": true,
          "internalType": "address",
          "name": "from",
          "type": "address"
        },
        {
          "indexed": true,
          "internalType": "address",
          "name": "to",
          "type": "address"
        },
        {
          "indexed": true,
          "internalType": "uint256",
          "name": "tokenId",
          "type": "uint256"
        }
      ],
      "name": "Transfer",
      "type": "event"
    },
    {
      "inputs": [
        {
          "internalType": "address",
          "name": "to",
          "type": "address"
        },
        {
          "internalType": "uint256",
          "name": "tokenId",
          "type": "uint256"
        }
      ],
      "name": "approve",
      "outputs": [],
      "stateMutability": "nonpayable",
      "type": "function"
    },
    {
      "inputs": [
        {
          "internalType": "address",
          "name": "owner",
          "type": "address"
        }
      ],
      "name": "balanceOf",
      "outputs": [
        {
          "internalType": "uint256",
          "name": "",
          "type": "uint256"
        }
      ],
      "stateMutability": "view",
      "type": "function",
      "constant": true
    },
    {
      "inputs": [
        {
          "internalType": "uint256",
          "name": "_tokenId",
          "type": "uint256"
        }
      ],
      "name": "burn",
      "outputs": [],
      "stateMutability": "nonpayable",
      "type": "function"
    },
    {
      "inputs": [
        {
          "internalType": "address",
          "name": "_consumer",
          "type": "address"
        },
        {
          "internalType": "uint256",
          "name": "_tokenId",
          "type": "uint256"
        }
      ],
      "name": "changeConsumer",
      "outputs": [],
      "stateMutability": "nonpayable",
      "type": "function"
    },
    {
      "inputs": [
        {
          "internalType": "uint256",
          "name": "_tokenId",
          "type": "uint256"
        }
      ],
      "name": "consumerOf",
      "outputs": [
        {
          "internalType": "address",
          "name": "",
          "type": "address"
        }
      ],
      "stateMutability": "view",
      "type": "function",
      "constant": true
    },
    {
      "inputs": [
        {
          "internalType": "uint256",
          "name": "tokenId",
          "type": "uint256"
        }
      ],
      "name": "getApproved",
      "outputs": [
        {
          "internalType": "address",
          "name": "",
          "type": "address"
        }
      ],
      "stateMutability": "view",
      "type": "function",
      "constant": true
    },
    {
      "inputs": [
        {
          "internalType": "address",
          "name": "owner",
          "type": "address"
        },
        {
          "internalType": "address",
          "name": "operator",
          "type": "address"
        }
      ],
      "name": "isApprovedForAll",
      "outputs": [
        {
          "internalType": "bool",
          "name": "",
          "type": "bool"
        }
      ],
      "stateMutability": "view",
      "type": "function",
      "constant": true
    },
    {
      "inputs": [
        {
          "internalType": "address",
          "name": "_to",
          "type": "address"
        },
        {
          "internalType": "uint256",
          "name": "_tokenId",
          "type": "uint256"
        },
        {
          "internalType": "int16",
          "name": "x1",
          "type": "int16"
        },
        {
          "internalType": "int16",
          "name": "y1",
          "type": "int16"
        },
        {
          "internalType": "int16",
          "name": "z1",
          "type": "int16"
        },
        {
          "internalType": "int16",
          "name": "x2",
          "type": "int16"
        },
        {
          "internalType": "int16",
          "name": "y2",
          "type": "int16"
        },
        {
          "internalType": "int16",
          "name": "z2",
          "type": "int16"
        }
      ],
      "name": "mint",
      "outputs": [],
      "stateMutability": "nonpayable",
      "type": "function"
    },
    {
      "inputs": [],
      "name": "name",
      "outputs": [
        {
          "internalType": "string",
          "name": "",
          "type": "string"
        }
      ],
      "stateMutability": "view",
      "type": "function",
      "constant": true
    },
    {
      "inputs": [],
      "name": "owner",
      "outputs": [
        {
          "internalType": "address",
          "name": "",
          "type": "address"
        }
      ],
      "stateMutability": "view",
      "type": "function",
      "constant": true
    },
    {
      "inputs": [
        {
          "internalType": "uint256",
          "name": "tokenId",
          "type": "uint256"
        }
      ],
      "name": "ownerOf",
      "outputs": [
        {
          "internalType": "address",
          "name": "",
          "type": "address"
        }
      ],
      "stateMutability": "view",
      "type": "function",
      "constant": true
    },
    {
      "inputs": [],
      "name": "renounceOwnership",
      "outputs": [],
      "stateMutability": "nonpayable",
      "type": "function"
    },
    {
      "inputs": [
        {
          "internalType": "address",
          "name": "from",
          "type": "address"
        },
        {
          "internalType": "address",
          "name": "to",
          "type": "address"
        },
        {
          "internalType": "uint256",
          "name": "tokenId",
          "type": "uint256"
        }
      ],
      "name": "safeTransferFrom",
      "outputs": [],
      "stateMutability": "nonpayable",
      "type": "function"
    },
    {
      "inputs": [
        {
          "internalType": "address",
          "name": "from",
          "type": "address"
        },
        {
          "internalType": "address",
          "name": "to",
          "type": "address"
        },
        {
          "internalType": "uint256",
          "name": "tokenId",
          "type": "uint256"
        },
        {
          "internalType": "bytes",
          "name": "_data",
          "type": "bytes"
        }
      ],
      "name": "safeTransferFrom",
      "outputs": [],
      "stateMutability": "nonpayable",
      "type": "function"
    },
    {
      "inputs": [
        {
          "internalType": "address",
          "name": "operator",
          "type": "address"
        },
        {
          "internalType": "bool",
          "name": "approved",
          "type": "bool"
        }
      ],
      "name": "setApprovalForAll",
      "outputs": [],
      "stateMutability": "nonpayable",
      "type": "function"
    },
    {
      "inputs": [
        {
          "internalType": "string",
          "name": "baseUri",
          "type": "string"
        }
      ],
      "name": "setBaseURI",
      "outputs": [],
      "stateMutability": "nonpayable",
      "type": "function"
    },
    {
      "inputs": [
        {
          "internalType": "bytes4",
          "name": "interfaceId",
          "type": "bytes4"
        }
      ],
      "name": "supportsInterface",
      "outputs": [
        {
          "internalType": "bool",
          "name": "",
          "type": "bool"
        }
      ],
      "stateMutability": "view",
      "type": "function",
      "constant": true
    },
    {
      "inputs": [],
      "name": "symbol",
      "outputs": [
        {
          "internalType": "string",
          "name": "",
          "type": "string"
        }
      ],
      "stateMutability": "view",
      "type": "function",
      "constant": true
    },
    {
      "inputs": [
        {
          "internalType": "uint256",
          "name": "index",
          "type": "uint256"
        }
      ],
      "name": "tokenByIndex",
      "outputs": [
        {
          "internalType": "uint256",
          "name": "",
          "type": "uint256"
        }
      ],
      "stateMutability": "view",
      "type": "function",
      "constant": true
    },
    {
      "inputs": [
        {
          "internalType": "address",
          "name": "owner",
          "type": "address"
        },
        {
          "internalType": "uint256",
          "name": "index",
          "type": "uint256"
        }
      ],
      "name": "tokenOfOwnerByIndex",
      "outputs": [
        {
          "internalType": "uint256",
          "name": "",
          "type": "uint256"
        }
      ],
      "stateMutability": "view",
      "type": "function",
      "constant": true
    },
    {
      "inputs": [
        {
          "internalType": "uint256",
          "name": "tokenId",
          "type": "uint256"
        }
      ],
      "name": "tokenURI",
      "outputs": [
        {
          "internalType": "string",
          "name": "",
          "type": "string"
        }
      ],
      "stateMutability": "view",
      "type": "function",
      "constant": true
    },
    {
      "inputs": [],
      "name": "totalSupply",
      "outputs": [
        {
          "internalType": "uint256",
          "name": "",
          "type": "uint256"
        }
      ],
      "stateMutability": "view",
      "type": "function",
      "constant": true
    },
    {
      "inputs": [
        {
          "internalType": "address",
          "name": "from",
          "type": "address"
        },
        {
          "internalType": "address",
          "name": "to",
          "type": "address"
        },
        {
          "internalType": "uint256",
          "name": "tokenId",
          "type": "uint256"
        }
      ],
      "name": "transferFrom",
      "outputs": [],
      "stateMutability": "nonpayable",
      "type": "function"
    },
    {
      "inputs": [],
      "name": "takeOwnership",
      "outputs": [],
      "stateMutability": "nonpayable",
      "type": "function"
    },
    {
      "inputs": [
        {
          "internalType": "address",
          "name": "newOwner",
          "type": "address"
        }
      ],
      "name": "transferOwnership",
      "outputs": [],
      "stateMutability": "nonpayable",
      "type": "function"
    },
    {
      "inputs": [
        {
          "internalType": "uint256",
          "name": "_tokenId",
          "type": "uint256"
        }
      ],
      "name": "getBoundingBox",
      "outputs": [
        {
          "internalType": "int16",
          "name": "x1",
          "type": "int16"
        },
        {
          "internalType": "int16",
          "name": "y1",
          "type": "int16"
        },
        {
          "internalType": "int16",
          "name": "z1",
          "type": "int16"
        },
        {
          "internalType": "int16",
          "name": "x2",
          "type": "int16"
        },
        {
          "internalType": "int16",
          "name": "y2",
          "type": "int16"
        },
        {
          "internalType": "int16",
          "name": "z2",
          "type": "int16"
        }
      ],
      "stateMutability": "view",
      "type": "function",
      "constant": true
    },
    {
      "inputs": [
        {
          "internalType": "address",
          "name": "tokenOwner",
          "type": "address"
        }
      ],
      "name": "parcelsOf",
      "outputs": [
        {
          "internalType": "uint256[]",
          "name": "_ids",
          "type": "uint256[]"
        }
      ],
      "stateMutability": "view",
      "type": "function",
      "constant": true
    }
  ],
  "bytecode": "0x60806040523480156200001157600080fd5b506040518060400160405280600d81526020017f566f78656c732070617263656c000000000000000000000000000000000000008152506040518060400160405280600481526020017f435650410000000000000000000000000000000000000000000000000000000081525081600090805190602001906200009692919062000235565b508060019080519060200190620000af92919062000235565b505050620000d2620000c66200016760201b60201c565b6200016f60201b60201c565b6040518060400160405280601f81526020017f68747470733a2f2f7777772e63727970746f766f78656c732e636f6d2f702f00815250600d90805190602001906200011f92919062000235565b5033600e60006101000a81548173ffffffffffffffffffffffffffffffffffffffff021916908373ffffffffffffffffffffffffffffffffffffffff16021790555062000349565b600033905090565b6000600a60009054906101000a900473ffffffffffffffffffffffffffffffffffffffff16905081600a60006101000a81548173ffffffffffffffffffffffffffffffffffffffff021916908373ffffffffffffffffffffffffffffffffffffffff1602179055508173ffffffffffffffffffffffffffffffffffffffff168173ffffffffffffffffffffffffffffffffffffffff167f8be0079c531659141344cd1fd0a4f28419497f9722a3daafe3b4186f6b6457e060405160405180910390a35050565b828054620002439062000314565b90600052602060002090601f016020900481019282620002675760008555620002b3565b82601f106200028257805160ff1916838001178555620002b3565b82800160010185558215620002b3579182015b82811115620002b257825182559160200191906001019062000295565b5b509050620002c29190620002c6565b5090565b5b80821115620002e1576000816000905550600101620002c7565b5090565b7f4e487b7100000000000000000000000000000000000000000000000000000000600052602260045260246000fd5b600060028204905060018216806200032d57607f821691505b602082108103620003435762000342620002e5565b5b50919050565b6149a580620003596000396000f3fe608060405234801561001057600080fd5b50600436106101a95760003560e01c806360536172116100f957806395d89b4111610097578063c87b56dd11610071578063c87b56dd146104bb578063e5892331146104eb578063e985e9c51461051b578063f2fde38b1461054b576101a9565b806395d89b4114610465578063a22cb46514610483578063b88d4fde1461049f576101a9565b806370b5aecb116100d357806370b5aecb146103ec578063715018a6146104085780637fef21d4146104125780638da5cb5b14610447576101a9565b806360536172146103825780636352211e1461038c57806370a08231146103bc576101a9565b80632f745c591161016657806342966c681161014057806342966c68146102ea5780634f6ccce71461030657806355f804b3146103365780635b9d2d4514610352576101a9565b80632f745c59146102825780633ea61b79146102b257806342842e0e146102ce576101a9565b806301ffc9a7146101ae57806306fdde03146101de578063081812fc146101fc578063095ea7b31461022c57806318160ddd1461024857806323b872dd14610266575b600080fd5b6101c860048036038101906101c39190612f0a565b610567565b6040516101d59190612f52565b60405180910390f35b6101e66105e1565b6040516101f39190613006565b60405180910390f35b6102166004803603810190610211919061305e565b610673565b60405161022391906130cc565b60405180910390f35b61024660048036038101906102419190613113565b6106f8565b005b61025061080f565b60405161025d9190613162565b60405180910390f35b610280600480360381019061027b919061317d565b61081c565b005b61029c60048036038101906102979190613113565b61087c565b6040516102a99190613162565b60405180910390f35b6102cc60048036038101906102c79190613209565b610921565b005b6102e860048036038101906102e3919061317d565b610c31565b005b61030460048036038101906102ff919061305e565b610c51565b005b610320600480360381019061031b919061305e565b610dea565b60405161032d9190613162565b60405180910390f35b610350600480360381019061034b91906133f4565b610e5b565b005b61036c6004803603810190610367919061343d565b610ef1565b6040516103799190613528565b60405180910390f35b61038a61100e565b005b6103a660048036038101906103a1919061305e565b61109c565b6040516103b391906130cc565b60405180910390f35b6103d660048036038101906103d1919061343d565b61114d565b6040516103e39190613162565b60405180910390f35b61040660048036038101906104019190613113565b611204565b005b610410611364565b005b61042c6004803603810190610427919061305e565b6113ec565b60405161043e96959493929190613559565b60405180910390f35b61044f61152a565b60405161045c91906130cc565b60405180910390f35b61046d611554565b60405161047a9190613006565b60405180910390f35b61049d600480360381019061049891906135e6565b6115e6565b005b6104b960048036038101906104b491906136c7565b6115fc565b005b6104d560048036038101906104d0919061305e565b61165e565b6040516104e29190613006565b60405180910390f35b6105056004803603810190610500919061305e565b611705565b60405161051291906130cc565b60405180910390f35b6105356004803603810190610530919061374a565b61178a565b6040516105429190612f52565b60405180910390f35b6105656004803603810190610560919061343d565b61181e565b005b60007f953c8dfa000000000000000000000000000000000000000000000000000000007bffffffffffffffffffffffffffffffffffffffffffffffffffffffff1916827bffffffffffffffffffffffffffffffffffffffffffffffffffffffff191614806105da57506105d98261193b565b5b9050919050565b6060600080546105f0906137b9565b80601f016020809104026020016040519081016040528092919081815260200182805461061c906137b9565b80156106695780601f1061063e57610100808354040283529160200191610669565b820191906000526020600020905b81548152906001019060200180831161064c57829003601f168201915b5050505050905090565b600061067e826119b5565b6106bd576040517f08c379a00000000000000000000000000000000000000000000000000000000081526004016106b49061385c565b60405180910390fd5b6004600083815260200190815260200160002060009054906101000a900473ffffffffffffffffffffffffffffffffffffffff169050919050565b60006107038261109c565b90508073ffffffffffffffffffffffffffffffffffffffff168373ffffffffffffffffffffffffffffffffffffffff1603610773576040517f08c379a000000000000000000000000000000000000000000000000000000000815260040161076a906138ee565b60405180910390fd5b8073ffffffffffffffffffffffffffffffffffffffff16610792611a21565b73ffffffffffffffffffffffffffffffffffffffff1614806107c157506107c0816107bb611a21565b61178a565b5b610800576040517f08c379a00000000000000000000000000000000000000000000000000000000081526004016107f790613980565b60405180910390fd5b61080a8383611a29565b505050565b6000600880549050905090565b61082d610827611a21565b82611ae2565b61086c576040517f08c379a000000000000000000000000000000000000000000000000000000000815260040161086390613a12565b60405180910390fd5b610877838383611bc0565b505050565b60006108878361114d565b82106108c8576040517f08c379a00000000000000000000000000000000000000000000000000000000081526004016108bf90613aa4565b60405180910390fd5b600660008473ffffffffffffffffffffffffffffffffffffffff1673ffffffffffffffffffffffffffffffffffffffff168152602001908152602001600020600083815260200190815260200160002054905092915050565b610929611a21565b73ffffffffffffffffffffffffffffffffffffffff1661094761152a565b73ffffffffffffffffffffffffffffffffffffffff161461099d576040517f08c379a000000000000000000000000000000000000000000000000000000000815260040161099490613b10565b60405180910390fd5b600073ffffffffffffffffffffffffffffffffffffffff168873ffffffffffffffffffffffffffffffffffffffff1603610a0c576040517f08c379a0000000000000000000000000000000000000000000000000000000008152600401610a0390613b7c565b60405180910390fd5b8560010b8360010b13610a54576040517f08c379a0000000000000000000000000000000000000000000000000000000008152600401610a4b90613be8565b60405180910390fd5b8460010b8260010b13610a9c576040517f08c379a0000000000000000000000000000000000000000000000000000000008152600401610a9390613c54565b60405180910390fd5b8360010b8160010b13610ae4576040517f08c379a0000000000000000000000000000000000000000000000000000000008152600401610adb90613cc0565b60405180910390fd5b6040518060c001604052808760010b81526020018660010b81526020018560010b81526020018460010b81526020018360010b81526020018260010b815250600c600089815260200190815260200160002060008201518160000160006101000a81548161ffff021916908360010b61ffff16021790555060208201518160000160026101000a81548161ffff021916908360010b61ffff16021790555060408201518160000160046101000a81548161ffff021916908360010b61ffff16021790555060608201518160000160066101000a81548161ffff021916908360010b61ffff16021790555060808201518160000160086101000a81548161ffff021916908360010b61ffff16021790555060a082015181600001600a6101000a81548161ffff021916908360010b61ffff160217905550905050610c278888611e26565b5050505050505050565b610c4c838383604051806020016040528060008152506115fc565b505050565b610c59611a21565b73ffffffffffffffffffffffffffffffffffffffff16610c7761152a565b73ffffffffffffffffffffffffffffffffffffffff1614610ccd576040517f08c379a0000000000000000000000000000000000000000000000000000000008152600401610cc490613b10565b60405180910390fd5b610cd561152a565b73ffffffffffffffffffffffffffffffffffffffff16610cf48261109c565b73ffffffffffffffffffffffffffffffffffffffff1614610d4a576040517f08c379a0000000000000000000000000000000000000000000000000000000008152600401610d4190613d52565b60405180910390fd5b610d5381611e44565b600c6000828152602001908152602001600020600080820160006101000a81549061ffff02191690556000820160026101000a81549061ffff02191690556000820160046101000a81549061ffff02191690556000820160066101000a81549061ffff02191690556000820160086101000a81549061ffff021916905560008201600a6101000a81549061ffff0219169055505050565b6000610df461080f565b8210610e35576040517f08c379a0000000000000000000000000000000000000000000000000000000008152600401610e2c90613de4565b60405180910390fd5b60088281548110610e4957610e48613e04565b5b90600052602060002001549050919050565b610e63611a21565b73ffffffffffffffffffffffffffffffffffffffff16610e8161152a565b73ffffffffffffffffffffffffffffffffffffffff1614610ed7576040517f08c379a0000000000000000000000000000000000000000000000000000000008152600401610ece90613b10565b60405180910390fd5b80600d9080519060200190610eed929190612dfb565b5050565b6060600073ffffffffffffffffffffffffffffffffffffffff168273ffffffffffffffffffffffffffffffffffffffff1603610f62576040517f08c379a0000000000000000000000000000000000000000000000000000000008152600401610f5990613e7f565b60405180910390fd5b6000610f6d8361114d565b905060008167ffffffffffffffff811115610f8b57610f8a6132c9565b5b604051908082528060200260200182016040528015610fb95781602001602082028036833780820191505090505b50905060005b8281101561100357610fd1858261087c565b828281518110610fe457610fe3613e04565b5b6020026020010181815250508080610ffb90613ece565b915050610fbf565b508092505050919050565b600e60009054906101000a900473ffffffffffffffffffffffffffffffffffffffff1673ffffffffffffffffffffffffffffffffffffffff1661104f611a21565b73ffffffffffffffffffffffffffffffffffffffff161461106f57600080fd5b61109a600e60009054906101000a900473ffffffffffffffffffffffffffffffffffffffff1661181e565b565b6000806002600084815260200190815260200160002060009054906101000a900473ffffffffffffffffffffffffffffffffffffffff169050600073ffffffffffffffffffffffffffffffffffffffff168173ffffffffffffffffffffffffffffffffffffffff1603611144576040517f08c379a000000000000000000000000000000000000000000000000000000000815260040161113b90613f88565b60405180910390fd5b80915050919050565b60008073ffffffffffffffffffffffffffffffffffffffff168273ffffffffffffffffffffffffffffffffffffffff16036111bd576040517f08c379a00000000000000000000000000000000000000000000000000000000081526004016111b49061401a565b60405180910390fd5b600360008373ffffffffffffffffffffffffffffffffffffffff1673ffffffffffffffffffffffffffffffffffffffff168152602001908152602001600020549050919050565b60003073ffffffffffffffffffffffffffffffffffffffff16636352211e836040518263ffffffff1660e01b815260040161123f9190613162565b602060405180830381865afa15801561125c573d6000803e3d6000fd5b505050506040513d601f19601f82011682018060405250810190611280919061404f565b90508073ffffffffffffffffffffffffffffffffffffffff166112a1611a21565b73ffffffffffffffffffffffffffffffffffffffff1614806112fd57506112c782610673565b73ffffffffffffffffffffffffffffffffffffffff166112e5611a21565b73ffffffffffffffffffffffffffffffffffffffff16145b8061131557506113148161130f611a21565b61178a565b5b611354576040517f08c379a000000000000000000000000000000000000000000000000000000000815260040161134b90614114565b60405180910390fd5b61135f818484611f61565b505050565b61136c611a21565b73ffffffffffffffffffffffffffffffffffffffff1661138a61152a565b73ffffffffffffffffffffffffffffffffffffffff16146113e0576040517f08c379a00000000000000000000000000000000000000000000000000000000081526004016113d790613b10565b60405180910390fd5b6113ea6000612013565b565b6000806000806000806113fe876119b5565b61143d576040517f08c379a000000000000000000000000000000000000000000000000000000000815260040161143490614180565b60405180910390fd5b600c600088815260200190815260200160002060000160009054906101000a900460010b9550600c600088815260200190815260200160002060000160029054906101000a900460010b9450600c600088815260200190815260200160002060000160049054906101000a900460010b9350600c600088815260200190815260200160002060000160069054906101000a900460010b9250600c600088815260200190815260200160002060000160089054906101000a900460010b9150600c6000888152602001908152602001600020600001600a9054906101000a900460010b905091939550919395565b6000600a60009054906101000a900473ffffffffffffffffffffffffffffffffffffffff16905090565b606060018054611563906137b9565b80601f016020809104026020016040519081016040528092919081815260200182805461158f906137b9565b80156115dc5780601f106115b1576101008083540402835291602001916115dc565b820191906000526020600020905b8154815290600101906020018083116115bf57829003601f168201915b5050505050905090565b6115f86115f1611a21565b83836120d9565b5050565b61160d611607611a21565b83611ae2565b61164c576040517f08c379a000000000000000000000000000000000000000000000000000000000815260040161164390613a12565b60405180910390fd5b61165884848484612245565b50505050565b6060611669826119b5565b6116a8576040517f08c379a000000000000000000000000000000000000000000000000000000000815260040161169f90614212565b60405180910390fd5b60006116b26122a1565b905060008151116116d257604051806020016040528060008152506116fd565b806116dc84612333565b6040516020016116ed92919061426e565b6040516020818303038152906040525b915050919050565b6000611710826119b5565b61174f576040517f08c379a000000000000000000000000000000000000000000000000000000000815260040161174690614304565b60405180910390fd5b600b600083815260200190815260200160002060009054906101000a900473ffffffffffffffffffffffffffffffffffffffff169050919050565b6000600560008473ffffffffffffffffffffffffffffffffffffffff1673ffffffffffffffffffffffffffffffffffffffff16815260200190815260200160002060008373ffffffffffffffffffffffffffffffffffffffff1673ffffffffffffffffffffffffffffffffffffffff16815260200190815260200160002060009054906101000a900460ff16905092915050565b600073ffffffffffffffffffffffffffffffffffffffff168173ffffffffffffffffffffffffffffffffffffffff160361188d576040517f08c379a000000000000000000000000000000000000000000000000000000000815260040161188490614396565b60405180910390fd5b600e60009054906101000a900473ffffffffffffffffffffffffffffffffffffffff1673ffffffffffffffffffffffffffffffffffffffff166118ce611a21565b73ffffffffffffffffffffffffffffffffffffffff16148061192957506118f361152a565b73ffffffffffffffffffffffffffffffffffffffff16611911611a21565b73ffffffffffffffffffffffffffffffffffffffff16145b156119385761193781612013565b5b50565b60007f780e9d63000000000000000000000000000000000000000000000000000000007bffffffffffffffffffffffffffffffffffffffffffffffffffffffff1916827bffffffffffffffffffffffffffffffffffffffffffffffffffffffff191614806119ae57506119ad82612493565b5b9050919050565b60008073ffffffffffffffffffffffffffffffffffffffff166002600084815260200190815260200160002060009054906101000a900473ffffffffffffffffffffffffffffffffffffffff1673ffffffffffffffffffffffffffffffffffffffff1614159050919050565b600033905090565b816004600083815260200190815260200160002060006101000a81548173ffffffffffffffffffffffffffffffffffffffff021916908373ffffffffffffffffffffffffffffffffffffffff160217905550808273ffffffffffffffffffffffffffffffffffffffff16611a9c8361109c565b73ffffffffffffffffffffffffffffffffffffffff167f8c5be1e5ebec7d5bd14f71427d1e84f3dd0314c0f7b2291e5b200ac8c7c3b92560405160405180910390a45050565b6000611aed826119b5565b611b2c576040517f08c379a0000000000000000000000000000000000000000000000000000000008152600401611b2390614428565b60405180910390fd5b6000611b378361109c565b90508073ffffffffffffffffffffffffffffffffffffffff168473ffffffffffffffffffffffffffffffffffffffff161480611ba657508373ffffffffffffffffffffffffffffffffffffffff16611b8e84610673565b73ffffffffffffffffffffffffffffffffffffffff16145b80611bb75750611bb6818561178a565b5b91505092915050565b8273ffffffffffffffffffffffffffffffffffffffff16611be08261109c565b73ffffffffffffffffffffffffffffffffffffffff1614611c36576040517f08c379a0000000000000000000000000000000000000000000000000000000008152600401611c2d906144ba565b60405180910390fd5b600073ffffffffffffffffffffffffffffffffffffffff168273ffffffffffffffffffffffffffffffffffffffff1603611ca5576040517f08c379a0000000000000000000000000000000000000000000000000000000008152600401611c9c9061454c565b60405180910390fd5b611cb0838383612575565b611cbb600082611a29565b6001600360008573ffffffffffffffffffffffffffffffffffffffff1673ffffffffffffffffffffffffffffffffffffffff1681526020019081526020016000206000828254611d0b919061456c565b925050819055506001600360008473ffffffffffffffffffffffffffffffffffffffff1673ffffffffffffffffffffffffffffffffffffffff1681526020019081526020016000206000828254611d6291906145a0565b92505081905550816002600083815260200190815260200160002060006101000a81548173ffffffffffffffffffffffffffffffffffffffff021916908373ffffffffffffffffffffffffffffffffffffffff160217905550808273ffffffffffffffffffffffffffffffffffffffff168473ffffffffffffffffffffffffffffffffffffffff167fddf252ad1be2c89b69c2b068fc378daa952ba7f163c4a11628f55a4df523b3ef60405160405180910390a4611e21838383612591565b505050565b611e40828260405180602001604052806000815250612596565b5050565b6000611e4f8261109c565b9050611e5d81600084612575565b611e68600083611a29565b6001600360008373ffffffffffffffffffffffffffffffffffffffff1673ffffffffffffffffffffffffffffffffffffffff1681526020019081526020016000206000828254611eb8919061456c565b925050819055506002600083815260200190815260200160002060006101000a81549073ffffffffffffffffffffffffffffffffffffffff021916905581600073ffffffffffffffffffffffffffffffffffffffff168273ffffffffffffffffffffffffffffffffffffffff167fddf252ad1be2c89b69c2b068fc378daa952ba7f163c4a11628f55a4df523b3ef60405160405180910390a4611f5d81600084612591565b5050565b81600b600083815260200190815260200160002060006101000a81548173ffffffffffffffffffffffffffffffffffffffff021916908373ffffffffffffffffffffffffffffffffffffffff160217905550808273ffffffffffffffffffffffffffffffffffffffff168473ffffffffffffffffffffffffffffffffffffffff167f42ef856c2602f37ce625d252830bed486c5c8e9a4de8aa36cc3d15f304eb662b60405160405180910390a4505050565b6000600a60009054906101000a900473ffffffffffffffffffffffffffffffffffffffff16905081600a60006101000a81548173ffffffffffffffffffffffffffffffffffffffff021916908373ffffffffffffffffffffffffffffffffffffffff1602179055508173ffffffffffffffffffffffffffffffffffffffff168173ffffffffffffffffffffffffffffffffffffffff167f8be0079c531659141344cd1fd0a4f28419497f9722a3daafe3b4186f6b6457e060405160405180910390a35050565b8173ffffffffffffffffffffffffffffffffffffffff168373ffffffffffffffffffffffffffffffffffffffff1603612147576040517f08c379a000000000000000000000000000000000000000000000000000000000815260040161213e90614642565b60405180910390fd5b80600560008573ffffffffffffffffffffffffffffffffffffffff1673ffffffffffffffffffffffffffffffffffffffff16815260200190815260200160002060008473ffffffffffffffffffffffffffffffffffffffff1673ffffffffffffffffffffffffffffffffffffffff16815260200190815260200160002060006101000a81548160ff0219169083151502179055508173ffffffffffffffffffffffffffffffffffffffff168373ffffffffffffffffffffffffffffffffffffffff167f17307eab39ab6107e8899845ad3d59bd9653f200f220920489ca2b5937696c31836040516122389190612f52565b60405180910390a3505050565b612250848484611bc0565b61225c848484846125f1565b61229b576040517f08c379a0000000000000000000000000000000000000000000000000000000008152600401612292906146d4565b60405180910390fd5b50505050565b6060600d80546122b0906137b9565b80601f01602080910402602001604051908101604052809291908181526020018280546122dc906137b9565b80156123295780601f106122fe57610100808354040283529160200191612329565b820191906000526020600020905b81548152906001019060200180831161230c57829003601f168201915b5050505050905090565b60606000820361237a576040518060400160405280600181526020017f3000000000000000000000000000000000000000000000000000000000000000815250905061248e565b600082905060005b600082146123ac57808061239590613ece565b915050600a826123a59190614723565b9150612382565b60008167ffffffffffffffff8111156123c8576123c76132c9565b5b6040519080825280601f01601f1916602001820160405280156123fa5781602001600182028036833780820191505090505b5090505b6000851461248757600182612413919061456c565b9150600a856124229190614754565b603061242e91906145a0565b60f81b81838151811061244457612443613e04565b5b60200101907effffffffffffffffffffffffffffffffffffffffffffffffffffffffffffff1916908160001a905350600a856124809190614723565b94506123fe565b8093505050505b919050565b60007f80ac58cd000000000000000000000000000000000000000000000000000000007bffffffffffffffffffffffffffffffffffffffffffffffffffffffff1916827bffffffffffffffffffffffffffffffffffffffffffffffffffffffff1916148061255e57507f5b5e139f000000000000000000000000000000000000000000000000000000007bffffffffffffffffffffffffffffffffffffffffffffffffffffffff1916827bffffffffffffffffffffffffffffffffffffffffffffffffffffffff1916145b8061256e575061256d82612778565b5b9050919050565b6125808383836127e2565b61258c83600083611f61565b505050565b505050565b6125a083836128f4565b6125ad60008484846125f1565b6125ec576040517f08c379a00000000000000000000000000000000000000000000000000000000081526004016125e3906146d4565b60405180910390fd5b505050565b60006126128473ffffffffffffffffffffffffffffffffffffffff16612acd565b1561276b578373ffffffffffffffffffffffffffffffffffffffff1663150b7a0261263b611a21565b8786866040518563ffffffff1660e01b815260040161265d94939291906147da565b6020604051808303816000875af192505050801561269957506040513d601f19601f82011682018060405250810190612696919061483b565b60015b61271b573d80600081146126c9576040519150601f19603f3d011682016040523d82523d6000602084013e6126ce565b606091505b506000815103612713576040517f08c379a000000000000000000000000000000000000000000000000000000000815260040161270a906146d4565b60405180910390fd5b805181602001fd5b63150b7a0260e01b7bffffffffffffffffffffffffffffffffffffffffffffffffffffffff1916817bffffffffffffffffffffffffffffffffffffffffffffffffffffffff191614915050612770565b600190505b949350505050565b60007f01ffc9a7000000000000000000000000000000000000000000000000000000007bffffffffffffffffffffffffffffffffffffffffffffffffffffffff1916827bffffffffffffffffffffffffffffffffffffffffffffffffffffffff1916149050919050565b6127ed838383612af0565b600073ffffffffffffffffffffffffffffffffffffffff168373ffffffffffffffffffffffffffffffffffffffff160361282f5761282a81612af5565b61286e565b8173ffffffffffffffffffffffffffffffffffffffff168373ffffffffffffffffffffffffffffffffffffffff161461286d5761286c8382612b3e565b5b5b600073ffffffffffffffffffffffffffffffffffffffff168273ffffffffffffffffffffffffffffffffffffffff16036128b0576128ab81612cab565b6128ef565b8273ffffffffffffffffffffffffffffffffffffffff168273ffffffffffffffffffffffffffffffffffffffff16146128ee576128ed8282612d7c565b5b5b505050565b600073ffffffffffffffffffffffffffffffffffffffff168273ffffffffffffffffffffffffffffffffffffffff1603612963576040517f08c379a000000000000000000000000000000000000000000000000000000000815260040161295a906148b4565b60405180910390fd5b61296c816119b5565b156129ac576040517f08c379a00000000000000000000000000000000000000000000000000000000081526004016129a390614920565b60405180910390fd5b6129b860008383612575565b6001600360008473ffffffffffffffffffffffffffffffffffffffff1673ffffffffffffffffffffffffffffffffffffffff1681526020019081526020016000206000828254612a0891906145a0565b92505081905550816002600083815260200190815260200160002060006101000a81548173ffffffffffffffffffffffffffffffffffffffff021916908373ffffffffffffffffffffffffffffffffffffffff160217905550808273ffffffffffffffffffffffffffffffffffffffff16600073ffffffffffffffffffffffffffffffffffffffff167fddf252ad1be2c89b69c2b068fc378daa952ba7f163c4a11628f55a4df523b3ef60405160405180910390a4612ac960008383612591565b5050565b6000808273ffffffffffffffffffffffffffffffffffffffff163b119050919050565b505050565b6008805490506009600083815260200190815260200160002081905550600881908060018154018082558091505060019003906000526020600020016000909190919091505550565b60006001612b4b8461114d565b612b55919061456c565b9050600060076000848152602001908152602001600020549050818114612c3a576000600660008673ffffffffffffffffffffffffffffffffffffffff1673ffffffffffffffffffffffffffffffffffffffff168152602001908152602001600020600084815260200190815260200160002054905080600660008773ffffffffffffffffffffffffffffffffffffffff1673ffffffffffffffffffffffffffffffffffffffff168152602001908152602001600020600084815260200190815260200160002081905550816007600083815260200190815260200160002081905550505b6007600084815260200190815260200160002060009055600660008573ffffffffffffffffffffffffffffffffffffffff1673ffffffffffffffffffffffffffffffffffffffff16815260200190815260200160002060008381526020019081526020016000206000905550505050565b60006001600880549050612cbf919061456c565b9050600060096000848152602001908152602001600020549050600060088381548110612cef57612cee613e04565b5b906000526020600020015490508060088381548110612d1157612d10613e04565b5b906000526020600020018190555081600960008381526020019081526020016000208190555060096000858152602001908152602001600020600090556008805480612d6057612d5f614940565b5b6001900381819060005260206000200160009055905550505050565b6000612d878361114d565b905081600660008573ffffffffffffffffffffffffffffffffffffffff1673ffffffffffffffffffffffffffffffffffffffff168152602001908152602001600020600083815260200190815260200160002081905550806007600084815260200190815260200160002081905550505050565b828054612e07906137b9565b90600052602060002090601f016020900481019282612e295760008555612e70565b82601f10612e4257805160ff1916838001178555612e70565b82800160010185558215612e70579182015b82811115612e6f578251825591602001919060010190612e54565b5b509050612e7d9190612e81565b5090565b5b80821115612e9a576000816000905550600101612e82565b5090565b6000604051905090565b600080fd5b600080fd5b60007fffffffff0000000000000000000000000000000000000000000000000000000082169050919050565b612ee781612eb2565b8114612ef257600080fd5b50565b600081359050612f0481612ede565b92915050565b600060208284031215612f2057612f1f612ea8565b5b6000612f2e84828501612ef5565b91505092915050565b60008115159050919050565b612f4c81612f37565b82525050565b6000602082019050612f676000830184612f43565b92915050565b600081519050919050565b600082825260208201905092915050565b60005b83811015612fa7578082015181840152602081019050612f8c565b83811115612fb6576000848401525b50505050565b6000601f19601f8301169050919050565b6000612fd882612f6d565b612fe28185612f78565b9350612ff2818560208601612f89565b612ffb81612fbc565b840191505092915050565b600060208201905081810360008301526130208184612fcd565b905092915050565b6000819050919050565b61303b81613028565b811461304657600080fd5b50565b60008135905061305881613032565b92915050565b60006020828403121561307457613073612ea8565b5b600061308284828501613049565b91505092915050565b600073ffffffffffffffffffffffffffffffffffffffff82169050919050565b60006130b68261308b565b9050919050565b6130c6816130ab565b82525050565b60006020820190506130e160008301846130bd565b92915050565b6130f0816130ab565b81146130fb57600080fd5b50565b60008135905061310d816130e7565b92915050565b6000806040838503121561312a57613129612ea8565b5b6000613138858286016130fe565b925050602061314985828601613049565b9150509250929050565b61315c81613028565b82525050565b60006020820190506131776000830184613153565b92915050565b60008060006060848603121561319657613195612ea8565b5b60006131a4868287016130fe565b93505060206131b5868287016130fe565b92505060406131c686828701613049565b9150509250925092565b60008160010b9050919050565b6131e6816131d0565b81146131f157600080fd5b50565b600081359050613203816131dd565b92915050565b600080600080600080600080610100898b03121561322a57613229612ea8565b5b60006132388b828c016130fe565b98505060206132498b828c01613049565b975050604061325a8b828c016131f4565b965050606061326b8b828c016131f4565b955050608061327c8b828c016131f4565b94505060a061328d8b828c016131f4565b93505060c061329e8b828c016131f4565b92505060e06132af8b828c016131f4565b9150509295985092959890939650565b600080fd5b600080fd5b7f4e487b7100000000000000000000000000000000000000000000000000000000600052604160045260246000fd5b61330182612fbc565b810181811067ffffffffffffffff821117156133205761331f6132c9565b5b80604052505050565b6000613333612e9e565b905061333f82826132f8565b919050565b600067ffffffffffffffff82111561335f5761335e6132c9565b5b61336882612fbc565b9050602081019050919050565b82818337600083830152505050565b600061339761339284613344565b613329565b9050828152602081018484840111156133b3576133b26132c4565b5b6133be848285613375565b509392505050565b600082601f8301126133db576133da6132bf565b5b81356133eb848260208601613384565b91505092915050565b60006020828403121561340a57613409612ea8565b5b600082013567ffffffffffffffff81111561342857613427612ead565b5b613434848285016133c6565b91505092915050565b60006020828403121561345357613452612ea8565b5b6000613461848285016130fe565b91505092915050565b600081519050919050565b600082825260208201905092915050565b6000819050602082019050919050565b61349f81613028565b82525050565b60006134b18383613496565b60208301905092915050565b6000602082019050919050565b60006134d58261346a565b6134df8185613475565b93506134ea83613486565b8060005b8381101561351b57815161350288826134a5565b975061350d836134bd565b9250506001810190506134ee565b5085935050505092915050565b6000602082019050818103600083015261354281846134ca565b905092915050565b613553816131d0565b82525050565b600060c08201905061356e600083018961354a565b61357b602083018861354a565b613588604083018761354a565b613595606083018661354a565b6135a2608083018561354a565b6135af60a083018461354a565b979650505050505050565b6135c381612f37565b81146135ce57600080fd5b50565b6000813590506135e0816135ba565b92915050565b600080604083850312156135fd576135fc612ea8565b5b600061360b858286016130fe565b925050602061361c858286016135d1565b9150509250929050565b600067ffffffffffffffff821115613641576136406132c9565b5b61364a82612fbc565b9050602081019050919050565b600061366a61366584613626565b613329565b905082815260208101848484011115613686576136856132c4565b5b613691848285613375565b509392505050565b600082601f8301126136ae576136ad6132bf565b5b81356136be848260208601613657565b91505092915050565b600080600080608085870312156136e1576136e0612ea8565b5b60006136ef878288016130fe565b9450506020613700878288016130fe565b935050604061371187828801613049565b925050606085013567ffffffffffffffff81111561373257613731612ead565b5b61373e87828801613699565b91505092959194509250565b6000806040838503121561376157613760612ea8565b5b600061376f858286016130fe565b9250506020613780858286016130fe565b9150509250929050565b7f4e487b7100000000000000000000000000000000000000000000000000000000600052602260045260246000fd5b600060028204905060018216806137d157607f821691505b6020821081036137e4576137e361378a565b5b50919050565b7f4552433732313a20617070726f76656420717565727920666f72206e6f6e657860008201527f697374656e7420746f6b656e0000000000000000000000000000000000000000602082015250565b6000613846602c83612f78565b9150613851826137ea565b604082019050919050565b6000602082019050818103600083015261387581613839565b9050919050565b7f4552433732313a20617070726f76616c20746f2063757272656e74206f776e6560008201527f7200000000000000000000000000000000000000000000000000000000000000602082015250565b60006138d8602183612f78565b91506138e38261387c565b604082019050919050565b60006020820190508181036000830152613907816138cb565b9050919050565b7f4552433732313a20617070726f76652063616c6c6572206973206e6f74206f7760008201527f6e6572206e6f7220617070726f76656420666f7220616c6c0000000000000000602082015250565b600061396a603883612f78565b91506139758261390e565b604082019050919050565b600060208201905081810360008301526139998161395d565b9050919050565b7f4552433732313a207472616e736665722063616c6c6572206973206e6f74206f60008201527f776e6572206e6f7220617070726f766564000000000000000000000000000000602082015250565b60006139fc603183612f78565b9150613a07826139a0565b604082019050919050565b60006020820190508181036000830152613a2b816139ef565b9050919050565b7f455243373231456e756d657261626c653a206f776e657220696e646578206f7560008201527f74206f6620626f756e6473000000000000000000000000000000000000000000602082015250565b6000613a8e602b83612f78565b9150613a9982613a32565b604082019050919050565b60006020820190508181036000830152613abd81613a81565b9050919050565b7f4f776e61626c653a2063616c6c6572206973206e6f7420746865206f776e6572600082015250565b6000613afa602083612f78565b9150613b0582613ac4565b602082019050919050565b60006020820190508181036000830152613b2981613aed565b9050919050565b7f43616e2774206d696e7420746f2061646472657373205a65726f000000000000600082015250565b6000613b66601a83612f78565b9150613b7182613b30565b602082019050919050565b60006020820190508181036000830152613b9581613b59565b9050919050565b7f576964746820697320756e737570706f72746564000000000000000000000000600082015250565b6000613bd2601483612f78565b9150613bdd82613b9c565b602082019050919050565b60006020820190508181036000830152613c0181613bc5565b9050919050565b7f68656967687420697320756e737570706f727465640000000000000000000000600082015250565b6000613c3e601583612f78565b9150613c4982613c08565b602082019050919050565b60006020820190508181036000830152613c6d81613c31565b9050919050565b7f446570746820697320756e737570706f72746564000000000000000000000000600082015250565b6000613caa601483612f78565b9150613cb582613c74565b602082019050919050565b60006020820190508181036000830152613cd981613c9d565b9050919050565b7f546f6b656e206f776e6572206973206e6f7420636f6e7472616374206f776e6560008201527f7200000000000000000000000000000000000000000000000000000000000000602082015250565b6000613d3c602183612f78565b9150613d4782613ce0565b604082019050919050565b60006020820190508181036000830152613d6b81613d2f565b9050919050565b7f455243373231456e756d657261626c653a20676c6f62616c20696e646578206f60008201527f7574206f6620626f756e64730000000000000000000000000000000000000000602082015250565b6000613dce602c83612f78565b9150613dd982613d72565b604082019050919050565b60006020820190508181036000830152613dfd81613dc1565b9050919050565b7f4e487b7100000000000000000000000000000000000000000000000000000000600052603260045260246000fd5b7f41646472657373205a65726f206e6f7420737570706f72746564000000000000600082015250565b6000613e69601a83612f78565b9150613e7482613e33565b602082019050919050565b60006020820190508181036000830152613e9881613e5c565b9050919050565b7f4e487b7100000000000000000000000000000000000000000000000000000000600052601160045260246000fd5b6000613ed982613028565b91507fffffffffffffffffffffffffffffffffffffffffffffffffffffffffffffffff8203613f0b57613f0a613e9f565b5b600182019050919050565b7f4552433732313a206f776e657220717565727920666f72206e6f6e657869737460008201527f656e7420746f6b656e0000000000000000000000000000000000000000000000602082015250565b6000613f72602983612f78565b9150613f7d82613f16565b604082019050919050565b60006020820190508181036000830152613fa181613f65565b9050919050565b7f4552433732313a2062616c616e636520717565727920666f7220746865207a6560008201527f726f206164647265737300000000000000000000000000000000000000000000602082015250565b6000614004602a83612f78565b915061400f82613fa8565b604082019050919050565b6000602082019050818103600083015261403381613ff7565b9050919050565b600081519050614049816130e7565b92915050565b60006020828403121561406557614064612ea8565b5b60006140738482850161403a565b91505092915050565b7f455243373231436f6e73756d61626c653a206368616e6765436f6e73756d657260008201527f2063616c6c6572206973206e6f74206f776e6572206e6f7220617070726f766560208201527f6400000000000000000000000000000000000000000000000000000000000000604082015250565b60006140fe604183612f78565b91506141098261407c565b606082019050919050565b6000602082019050818103600083015261412d816140f1565b9050919050565b7f546f6b656e20696420646f6573206e6f74206578697374730000000000000000600082015250565b600061416a601883612f78565b915061417582614134565b602082019050919050565b600060208201905081810360008301526141998161415d565b9050919050565b7f4552433732314d657461646174613a2055524920717565727920666f72206e6f60008201527f6e6578697374656e7420746f6b656e0000000000000000000000000000000000602082015250565b60006141fc602f83612f78565b9150614207826141a0565b604082019050919050565b6000602082019050818103600083015261422b816141ef565b9050919050565b600081905092915050565b600061424882612f6d565b6142528185614232565b9350614262818560208601612f89565b80840191505092915050565b600061427a828561423d565b9150614286828461423d565b91508190509392505050565b7f455243373231436f6e73756d61626c653a20636f6e73756d657220717565727960008201527f20666f72206e6f6e6578697374656e7420746f6b656e00000000000000000000602082015250565b60006142ee603683612f78565b91506142f982614292565b604082019050919050565b6000602082019050818103600083015261431d816142e1565b9050919050565b7f4f776e61626c653a206e6577206f776e657220697320746865207a65726f206160008201527f6464726573730000000000000000000000000000000000000000000000000000602082015250565b6000614380602683612f78565b915061438b82614324565b604082019050919050565b600060208201905081810360008301526143af81614373565b9050919050565b7f4552433732313a206f70657261746f7220717565727920666f72206e6f6e657860008201527f697374656e7420746f6b656e0000000000000000000000000000000000000000602082015250565b6000614412602c83612f78565b915061441d826143b6565b604082019050919050565b6000602082019050818103600083015261444181614405565b9050919050565b7f4552433732313a207472616e736665722066726f6d20696e636f72726563742060008201527f6f776e6572000000000000000000000000000000000000000000000000000000602082015250565b60006144a4602583612f78565b91506144af82614448565b604082019050919050565b600060208201905081810360008301526144d381614497565b9050919050565b7f4552433732313a207472616e7366657220746f20746865207a65726f2061646460008201527f7265737300000000000000000000000000000000000000000000000000000000602082015250565b6000614536602483612f78565b9150614541826144da565b604082019050919050565b6000602082019050818103600083015261456581614529565b9050919050565b600061457782613028565b915061458283613028565b92508282101561459557614594613e9f565b5b828203905092915050565b60006145ab82613028565b91506145b683613028565b9250827fffffffffffffffffffffffffffffffffffffffffffffffffffffffffffffffff038211156145eb576145ea613e9f565b5b828201905092915050565b7f4552433732313a20617070726f766520746f2063616c6c657200000000000000600082015250565b600061462c601983612f78565b9150614637826145f6565b602082019050919050565b6000602082019050818103600083015261465b8161461f565b9050919050565b7f4552433732313a207472616e7366657220746f206e6f6e20455243373231526560008201527f63656976657220696d706c656d656e7465720000000000000000000000000000602082015250565b60006146be603283612f78565b91506146c982614662565b604082019050919050565b600060208201905081810360008301526146ed816146b1565b9050919050565b7f4e487b7100000000000000000000000000000000000000000000000000000000600052601260045260246000fd5b600061472e82613028565b915061473983613028565b925082614749576147486146f4565b5b828204905092915050565b600061475f82613028565b915061476a83613028565b92508261477a576147796146f4565b5b828206905092915050565b600081519050919050565b600082825260208201905092915050565b60006147ac82614785565b6147b68185614790565b93506147c6818560208601612f89565b6147cf81612fbc565b840191505092915050565b60006080820190506147ef60008301876130bd565b6147fc60208301866130bd565b6148096040830185613153565b818103606083015261481b81846147a1565b905095945050505050565b60008151905061483581612ede565b92915050565b60006020828403121561485157614850612ea8565b5b600061485f84828501614826565b91505092915050565b7f4552433732313a206d696e7420746f20746865207a65726f2061646472657373600082015250565b600061489e602083612f78565b91506148a982614868565b602082019050919050565b600060208201905081810360008301526148cd81614891565b9050919050565b7f4552433732313a20746f6b656e20616c7265616479206d696e74656400000000600082015250565b600061490a601c83612f78565b9150614915826148d4565b602082019050919050565b60006020820190508181036000830152614939816148fd565b9050919050565b7f4e487b7100000000000000000000000000000000000000000000000000000000600052603160045260246000fdfea26469706673582212204d3260f7a14933e88c4b69d03723d2c1aa6cc7e9a11a0a82ab8a3b690da1253e64736f6c634300080e0033",
  "immutableReferences": {},
  "source": "//SPDX-License-Identifier: MIT\npragma solidity ^0.8.4;\n\nimport \"@openzeppelin/contracts/token/ERC721/ERC721.sol\";\nimport \"@openzeppelin/contracts/token/ERC721/extensions/ERC721Enumerable.sol\";\nimport \"@openzeppelin/contracts/token/ERC721/extensions/IERC721Enumerable.sol\";\nimport \"@openzeppelin/contracts/interfaces/IERC165.sol\";\nimport \"@openzeppelin/contracts/access/Ownable.sol\";\n\n/// @title ERC-721 Consumer Role extension\n///  Note: the ERC-165 identifier for this interface is 0x953c8dfa\n/* is ERC721 */\ninterface IERC721Consumable {\n    /// @notice Emitted when `owner` changes the `consumer` of an NFT\n    /// The zero address for consumer indicates that there is no consumer address\n    /// When a Transfer event emits, this also indicates that the consumer address\n    /// for that NFT (if any) is set to none\n    event ConsumerChanged(\n        address indexed owner,\n        address indexed consumer,\n        uint256 indexed tokenId\n    );\n\n    /// @notice Get the consumer address of an NFT\n    /// @dev The zero address indicates that there is no consumer\n    /// Throws if `_tokenId` is not a valid NFT\n    /// @param _tokenId The NFT to get the consumer address for\n    /// @return The consumer address for this NFT, or the zero address if there is none\n    function consumerOf(uint256 _tokenId) external view returns (address);\n\n    /// @notice Change or reaffirm the consumer address for an NFT\n    /// @dev The zero address indicates there is no consumer address\n    /// Throws unless `msg.sender` is the current NFT owner, an authorised\n    /// operator of the current owner or approved address\n    /// Throws if `_tokenId` is not valid NFT\n    /// @param _consumer The new consumer of the NFT\n    function changeConsumer(address _consumer, uint256 _tokenId) external;\n}\n\ncontract ParcelERC721Storage is IERC721Consumable, ERC721Enumerable, Ownable {\n    /// @dev Mapping from token ID to consumer address\n    mapping(uint256 => address) _tokenConsumers;\n\n    /// @dev Parcel id to bounding boxes\n    mapping(uint256 => BoundingBox) internal boundingBoxes;\n\n    /// @dev The structure of a parcel bounding box\n    struct BoundingBox {\n        int16 x1;\n        int16 y1;\n        int16 z1;\n        int16 x2;\n        int16 y2;\n        int16 z2;\n    }\n\n    /// @dev  Represents the base of the tokenUri\n    string private _baseUri;\n\n    constructor() ERC721(\"Voxels parcel\", \"CVPA\") {\n        _baseUri = \"https://www.cryptovoxels.com/p/\";\n    }\n\n    /**\n    * @notice Requires positive width,height and depth\n    * @dev Creates a new parcel as NFT.\n    * @param _to address receiving the Parcel\n    * @param _tokenId the id of the new Parcel.\n    * @param x1 property x1 of the first point of the bounding box\n    * @param y1 property y1 of the first point of the bounding box\n    * @param z1 property z1 of the first point of the bounding box\n    * @param x2 property x1 of the second point of the bounding box\n    * @param y2 property x1 of the second point of the bounding box\n    * @param z2 property x1 of the second point of the bounding box\n    */\n    function mint(\n        address _to,\n        uint256 _tokenId,\n        int16 x1,\n        int16 y1,\n        int16 z1,\n        int16 x2,\n        int16 y2,\n        int16 z2\n    ) external onlyOwner {\n        require(_to != address(0), \"Can't mint to address Zero\");\n        require(x2 > x1, \"Width is unsupported\");\n        require(y2 > y1, \"height is unsupported\");\n        require(z2 > z1, \"Depth is unsupported\");\n\n        // Set bounds\n        boundingBoxes[_tokenId] = BoundingBox(x1, y1, z1, x2, y2, z2);\n\n        _safeMint(_to, _tokenId);\n    }\n        \n    /**\n    * @notice Sets the baseURI for tokens\n    * @dev Sets the baseURI for tokens, only the contract owner can call;\n    * @param baseUri a string that forms a URI\n    */\n    function setBaseURI(string memory baseUri) external onlyOwner {\n        _baseUri = baseUri;\n    }\n\n    /**\n     * @notice Base URI for computing {tokenURI}\n     * @dev overrides ERC721 - _baseURI\n     * @return _baseUri Baseuri of metadata\n     */\n    function _baseURI() internal view override(ERC721) returns (string memory) {\n        return _baseUri;\n    }\n\n    /**\n     * @notice see @ERC721._burn();\n     * @dev We purposely only allow the contract owner to burn. This is to relate to the real-world where one cannot destroy land.\n     * @param _tokenId a token Id\n     */\n    function burn(uint256 _tokenId) public onlyOwner {\n        require(\n            ownerOf(_tokenId) == owner(),\n            \"Token owner is not contract owner\"\n        );\n        _burn(_tokenId);\n\n        // Delete bounding box metadata\n        delete boundingBoxes[_tokenId];\n    }\n\n    /**\n     * @dev See {IERC721Consumable-consumerOf}\n     */\n    function consumerOf(uint256 _tokenId)\n        external\n        view\n        override\n        returns (address)\n    {\n        require(\n            _exists(_tokenId),\n            \"ERC721Consumable: consumer query for nonexistent token\"\n        );\n        return _tokenConsumers[_tokenId];\n    }\n\n    /**\n     * @dev See {IERC721Consumable-changeConsumer}\n     */\n    function changeConsumer(address _consumer, uint256 _tokenId)\n        external\n        override\n    {\n        address tokenOwner = this.ownerOf(_tokenId);\n        require(\n            _msgSender() == tokenOwner ||\n                _msgSender() == getApproved(_tokenId) ||\n                isApprovedForAll(tokenOwner, _msgSender()),\n            \"ERC721Consumable: changeConsumer caller is not owner nor approved\"\n        );\n        _changeConsumer(tokenOwner, _consumer, _tokenId);\n    }\n\n    /**\n     * @dev Changes the consumer\n     * Requirement: `tokenId` must exist\n     */\n    function _changeConsumer(\n        address tokenOwner,\n        address _consumer,\n        uint256 _tokenId\n    ) internal {\n        _tokenConsumers[_tokenId] = _consumer;\n        emit ConsumerChanged(tokenOwner, _consumer, _tokenId);\n    }\n\n    /**\n     * @dev See {IERC165-supportsInterface}.\n     */\n    function supportsInterface(bytes4 interfaceId)\n        public\n        view\n        virtual\n        override(ERC721Enumerable)\n        returns (bool)\n    {\n        return\n            interfaceId == type(IERC721Consumable).interfaceId ||\n            super.supportsInterface(interfaceId);\n    }\n\n    /**\n     * @dev See {ERC721Consumable}.\n     */\n    function _beforeTokenTransfer(\n        address _from,\n        address _to,\n        uint256 _tokenId\n    ) internal override(ERC721Enumerable) {\n        ERC721Enumerable._beforeTokenTransfer(_from, _to, _tokenId);\n\n        _changeConsumer(_from, address(0), _tokenId);\n    }\n}\n\ncontract Parcel is ParcelERC721Storage {\n    address internal creator;\n\n    constructor() {\n        creator = msg.sender;\n    }\n\n    /**\n     * @dev takeOwnership() let the original contract creator to take over the contract.\n     */\n    function takeOwnership() external {\n        require(_msgSender() == creator);\n        transferOwnership(creator);\n    }\n\n    /**\n     * Overrides transferOwnership of Ownable.\n     * @dev Transfers ownership of the contract to a new account (`newOwner`).\n     * Can only be called by the current owner or the contract creator.\n     */\n    function transferOwnership(address newOwner) public override(Ownable) {\n        require(\n            newOwner != address(0),\n            \"Ownable: new owner is the zero address\"\n        );\n        if (_msgSender() == creator || _msgSender() == owner()) {\n            _transferOwnership(newOwner);\n        }\n    }\n\n    /**\n     * @notice Returns bounding box of the parcel\n     * @param _tokenId token Id of the parcel\n     * @return x1 number, y1 number, z1 number,x2 number,y2 number,z2 number\n     */\n    function getBoundingBox(uint256 _tokenId)\n        external\n        view\n        returns (\n            int16 x1,\n            int16 y1,\n            int16 z1,\n            int16 x2,\n            int16 y2,\n            int16 z2\n        )\n    {\n        require(_exists(_tokenId), \"Token id does not exists\");\n\n        x1 = boundingBoxes[_tokenId].x1;\n        y1 = boundingBoxes[_tokenId].y1;\n        z1 = boundingBoxes[_tokenId].z1;\n        x2 = boundingBoxes[_tokenId].x2;\n        y2 = boundingBoxes[_tokenId].y2;\n        z2 = boundingBoxes[_tokenId].z2;\n    }\n\n    /**\n     * @notice Returns the parcels owned by _owner\n     * @param tokenOwner Address of the owner\n     * @return _ids list of token ids\n     */\n    function parcelsOf(address tokenOwner)\n        external\n        view\n        returns (uint256[] memory _ids)\n    {\n        require(tokenOwner != address(0), \"Address Zero not supported\");\n        uint256 balance;\n        balance = balanceOf(tokenOwner);\n        uint256[] memory ids = new uint256[](balance);\n        for (uint256 i = 0; i < balance; i++) {\n            ids[i] = tokenOfOwnerByIndex(tokenOwner, i);\n        }\n        return ids;\n    }\n}\n",
  "sourcePath": "/Users/talent/Documents/Voxels/parcel-migration/contracts/parcels.sol",
  "compiler": {
    "name": "solc",
    "version": "0.8.14+commit.80d49f37.Emscripten.clang"
  },
  "schemaVersion": "3.4.3",
  "updatedAt": "2022-06-13T00:43:48.494Z",
  "networkType": "ethereum",
  "devdoc": {
    "kind": "dev",
    "methods": {
      "approve(address,uint256)": {
        "details": "See {IERC721-approve}."
      },
      "balanceOf(address)": {
        "details": "See {IERC721-balanceOf}."
      },
      "burn(uint256)": {
        "details": "We purposely only allow the contract owner to burn. This is to relate to the real-world where one cannot destroy land.",
        "params": {
          "_tokenId": "a token Id"
        }
      },
      "changeConsumer(address,uint256)": {
        "details": "See {IERC721Consumable-changeConsumer}"
      },
      "consumerOf(uint256)": {
        "details": "See {IERC721Consumable-consumerOf}"
      },
      "getApproved(uint256)": {
        "details": "See {IERC721-getApproved}."
      },
      "getBoundingBox(uint256)": {
        "params": {
          "_tokenId": "token Id of the parcel"
        },
        "returns": {
          "x1": "number, y1 number, z1 number,x2 number,y2 number,z2 number"
        }
      },
      "isApprovedForAll(address,address)": {
        "details": "See {IERC721-isApprovedForAll}."
      },
      "mint(address,uint256,int16,int16,int16,int16,int16,int16)": {
        "details": "Creates a new parcel as NFT.",
        "params": {
          "_to": "address receiving the Parcel",
          "_tokenId": "the id of the new Parcel.",
          "x1": "property x1 of the first point of the bounding box",
          "x2": "property x1 of the second point of the bounding box",
          "y1": "property y1 of the first point of the bounding box",
          "y2": "property x1 of the second point of the bounding box",
          "z1": "property z1 of the first point of the bounding box",
          "z2": "property x1 of the second point of the bounding box"
        }
      },
      "name()": {
        "details": "See {IERC721Metadata-name}."
      },
      "owner()": {
        "details": "Returns the address of the current owner."
      },
      "ownerOf(uint256)": {
        "details": "See {IERC721-ownerOf}."
      },
      "parcelsOf(address)": {
        "params": {
          "tokenOwner": "Address of the owner"
        },
        "returns": {
          "_ids": "list of token ids"
        }
      },
      "renounceOwnership()": {
        "details": "Leaves the contract without owner. It will not be possible to call `onlyOwner` functions anymore. Can only be called by the current owner. NOTE: Renouncing ownership will leave the contract without an owner, thereby removing any functionality that is only available to the owner."
      },
      "safeTransferFrom(address,address,uint256)": {
        "details": "See {IERC721-safeTransferFrom}."
      },
      "safeTransferFrom(address,address,uint256,bytes)": {
        "details": "See {IERC721-safeTransferFrom}."
      },
      "setApprovalForAll(address,bool)": {
        "details": "See {IERC721-setApprovalForAll}."
      },
      "setBaseURI(string)": {
        "details": "Sets the baseURI for tokens, only the contract owner can call;",
        "params": {
          "baseUri": "a string that forms a URI"
        }
      },
      "supportsInterface(bytes4)": {
        "details": "See {IERC165-supportsInterface}."
      },
      "symbol()": {
        "details": "See {IERC721Metadata-symbol}."
      },
      "takeOwnership()": {
        "details": "takeOwnership() let the original contract creator to take over the contract."
      },
      "tokenByIndex(uint256)": {
        "details": "See {IERC721Enumerable-tokenByIndex}."
      },
      "tokenOfOwnerByIndex(address,uint256)": {
        "details": "See {IERC721Enumerable-tokenOfOwnerByIndex}."
      },
      "tokenURI(uint256)": {
        "details": "See {IERC721Metadata-tokenURI}."
      },
      "totalSupply()": {
        "details": "See {IERC721Enumerable-totalSupply}."
      },
      "transferFrom(address,address,uint256)": {
        "details": "See {IERC721-transferFrom}."
      },
      "transferOwnership(address)": {
        "details": "Transfers ownership of the contract to a new account (`newOwner`). Can only be called by the current owner or the contract creator."
      }
    },
    "version": 1
  },
  "userdoc": {
    "events": {
      "ConsumerChanged(address,address,uint256)": {
        "notice": "Emitted when `owner` changes the `consumer` of an NFT The zero address for consumer indicates that there is no consumer address When a Transfer event emits, this also indicates that the consumer address for that NFT (if any) is set to none"
      }
    },
    "kind": "user",
    "methods": {
      "burn(uint256)": {
        "notice": "see @ERC721._burn();"
      },
      "getBoundingBox(uint256)": {
        "notice": "Returns bounding box of the parcel"
      },
      "mint(address,uint256,int16,int16,int16,int16,int16,int16)": {
        "notice": "Requires positive width,height and depth"
      },
      "parcelsOf(address)": {
        "notice": "Returns the parcels owned by _owner"
      },
      "setBaseURI(string)": {
        "notice": "Sets the baseURI for tokens"
      },
      "transferOwnership(address)": {
        "notice": "Overrides transferOwnership of Ownable."
      }
    },
    "version": 1
  }
}