{
  "contractName": "ParcelERC721Storage",
  "abi": [
    {
      "inputs": [],
      "stateMutability": "nonpayable",
      "type": "constructor"
    },
    {
      "anonymous": false,
      "inputs": [
        {
          "indexed": true,
          "internalType": "address",
          "name": "owner",
          "type": "address"
        },
        {
          "indexed": true,
          "internalType": "address",
          "name": "approved",
          "type": "address"
        },
        {
          "indexed": true,
          "internalType": "uint256",
          "name": "tokenId",
          "type": "uint256"
        }
      ],
      "name": "Approval",
      "type": "event"
    },
    {
      "anonymous": false,
      "inputs": [
        {
          "indexed": true,
          "internalType": "address",
          "name": "owner",
          "type": "address"
        },
        {
          "indexed": true,
          "internalType": "address",
          "name": "operator",
          "type": "address"
        },
        {
          "indexed": false,
          "internalType": "bool",
          "name": "approved",
          "type": "bool"
        }
      ],
      "name": "ApprovalForAll",
      "type": "event"
    },
    {
      "anonymous": false,
      "inputs": [
        {
          "indexed": true,
          "internalType": "address",
          "name": "owner",
          "type": "address"
        },
        {
          "indexed": true,
          "internalType": "address",
          "name": "consumer",
          "type": "address"
        },
        {
          "indexed": true,
          "internalType": "uint256",
          "name": "tokenId",
          "type": "uint256"
        }
      ],
      "name": "ConsumerChanged",
      "type": "event"
    },
    {
      "anonymous": false,
      "inputs": [
        {
          "indexed": true,
          "internalType": "address",
          "name": "previousOwner",
          "type": "address"
        },
        {
          "indexed": true,
          "internalType": "address",
          "name": "newOwner",
          "type": "address"
        }
      ],
      "name": "OwnershipTransferred",
      "type": "event"
    },
    {
      "anonymous": false,
      "inputs": [
        {
          "indexed": true,
          "internalType": "address",
          "name": "from",
          "type": "address"
        },
        {
          "indexed": true,
          "internalType": "address",
          "name": "to",
          "type": "address"
        },
        {
          "indexed": true,
          "internalType": "uint256",
          "name": "tokenId",
          "type": "uint256"
        }
      ],
      "name": "Transfer",
      "type": "event"
    },
    {
      "inputs": [
        {
          "internalType": "address",
          "name": "to",
          "type": "address"
        },
        {
          "internalType": "uint256",
          "name": "tokenId",
          "type": "uint256"
        }
      ],
      "name": "approve",
      "outputs": [],
      "stateMutability": "nonpayable",
      "type": "function"
    },
    {
      "inputs": [
        {
          "internalType": "address",
          "name": "owner",
          "type": "address"
        }
      ],
      "name": "balanceOf",
      "outputs": [
        {
          "internalType": "uint256",
          "name": "",
          "type": "uint256"
        }
      ],
      "stateMutability": "view",
      "type": "function"
    },
    {
      "inputs": [
        {
          "internalType": "uint256",
          "name": "tokenId",
          "type": "uint256"
        }
      ],
      "name": "getApproved",
      "outputs": [
        {
          "internalType": "address",
          "name": "",
          "type": "address"
        }
      ],
      "stateMutability": "view",
      "type": "function"
    },
    {
      "inputs": [
        {
          "internalType": "address",
          "name": "owner",
          "type": "address"
        },
        {
          "internalType": "address",
          "name": "operator",
          "type": "address"
        }
      ],
      "name": "isApprovedForAll",
      "outputs": [
        {
          "internalType": "bool",
          "name": "",
          "type": "bool"
        }
      ],
      "stateMutability": "view",
      "type": "function"
    },
    {
      "inputs": [],
      "name": "name",
      "outputs": [
        {
          "internalType": "string",
          "name": "",
          "type": "string"
        }
      ],
      "stateMutability": "view",
      "type": "function"
    },
    {
      "inputs": [],
      "name": "owner",
      "outputs": [
        {
          "internalType": "address",
          "name": "",
          "type": "address"
        }
      ],
      "stateMutability": "view",
      "type": "function"
    },
    {
      "inputs": [
        {
          "internalType": "uint256",
          "name": "tokenId",
          "type": "uint256"
        }
      ],
      "name": "ownerOf",
      "outputs": [
        {
          "internalType": "address",
          "name": "",
          "type": "address"
        }
      ],
      "stateMutability": "view",
      "type": "function"
    },
    {
      "inputs": [],
      "name": "renounceOwnership",
      "outputs": [],
      "stateMutability": "nonpayable",
      "type": "function"
    },
    {
      "inputs": [
        {
          "internalType": "address",
          "name": "from",
          "type": "address"
        },
        {
          "internalType": "address",
          "name": "to",
          "type": "address"
        },
        {
          "internalType": "uint256",
          "name": "tokenId",
          "type": "uint256"
        }
      ],
      "name": "safeTransferFrom",
      "outputs": [],
      "stateMutability": "nonpayable",
      "type": "function"
    },
    {
      "inputs": [
        {
          "internalType": "address",
          "name": "from",
          "type": "address"
        },
        {
          "internalType": "address",
          "name": "to",
          "type": "address"
        },
        {
          "internalType": "uint256",
          "name": "tokenId",
          "type": "uint256"
        },
        {
          "internalType": "bytes",
          "name": "_data",
          "type": "bytes"
        }
      ],
      "name": "safeTransferFrom",
      "outputs": [],
      "stateMutability": "nonpayable",
      "type": "function"
    },
    {
      "inputs": [
        {
          "internalType": "address",
          "name": "operator",
          "type": "address"
        },
        {
          "internalType": "bool",
          "name": "approved",
          "type": "bool"
        }
      ],
      "name": "setApprovalForAll",
      "outputs": [],
      "stateMutability": "nonpayable",
      "type": "function"
    },
    {
      "inputs": [],
      "name": "symbol",
      "outputs": [
        {
          "internalType": "string",
          "name": "",
          "type": "string"
        }
      ],
      "stateMutability": "view",
      "type": "function"
    },
    {
      "inputs": [
        {
          "internalType": "uint256",
          "name": "index",
          "type": "uint256"
        }
      ],
      "name": "tokenByIndex",
      "outputs": [
        {
          "internalType": "uint256",
          "name": "",
          "type": "uint256"
        }
      ],
      "stateMutability": "view",
      "type": "function"
    },
    {
      "inputs": [
        {
          "internalType": "address",
          "name": "owner",
          "type": "address"
        },
        {
          "internalType": "uint256",
          "name": "index",
          "type": "uint256"
        }
      ],
      "name": "tokenOfOwnerByIndex",
      "outputs": [
        {
          "internalType": "uint256",
          "name": "",
          "type": "uint256"
        }
      ],
      "stateMutability": "view",
      "type": "function"
    },
    {
      "inputs": [
        {
          "internalType": "uint256",
          "name": "tokenId",
          "type": "uint256"
        }
      ],
      "name": "tokenURI",
      "outputs": [
        {
          "internalType": "string",
          "name": "",
          "type": "string"
        }
      ],
      "stateMutability": "view",
      "type": "function"
    },
    {
      "inputs": [],
      "name": "totalSupply",
      "outputs": [
        {
          "internalType": "uint256",
          "name": "",
          "type": "uint256"
        }
      ],
      "stateMutability": "view",
      "type": "function"
    },
    {
      "inputs": [
        {
          "internalType": "address",
          "name": "from",
          "type": "address"
        },
        {
          "internalType": "address",
          "name": "to",
          "type": "address"
        },
        {
          "internalType": "uint256",
          "name": "tokenId",
          "type": "uint256"
        }
      ],
      "name": "transferFrom",
      "outputs": [],
      "stateMutability": "nonpayable",
      "type": "function"
    },
    {
      "inputs": [
        {
          "internalType": "address",
          "name": "newOwner",
          "type": "address"
        }
      ],
      "name": "transferOwnership",
      "outputs": [],
      "stateMutability": "nonpayable",
      "type": "function"
    },
    {
      "inputs": [
        {
          "internalType": "address",
          "name": "_to",
          "type": "address"
        },
        {
          "internalType": "uint256",
          "name": "_tokenId",
          "type": "uint256"
        },
        {
          "internalType": "int16",
          "name": "x1",
          "type": "int16"
        },
        {
          "internalType": "int16",
          "name": "y1",
          "type": "int16"
        },
        {
          "internalType": "int16",
          "name": "z1",
          "type": "int16"
        },
        {
          "internalType": "int16",
          "name": "x2",
          "type": "int16"
        },
        {
          "internalType": "int16",
          "name": "y2",
          "type": "int16"
        },
        {
          "internalType": "int16",
          "name": "z2",
          "type": "int16"
        }
      ],
      "name": "mint",
      "outputs": [],
      "stateMutability": "nonpayable",
      "type": "function"
    },
    {
      "inputs": [
        {
          "internalType": "string",
          "name": "baseUri",
          "type": "string"
        }
      ],
      "name": "setBaseURI",
      "outputs": [],
      "stateMutability": "nonpayable",
      "type": "function"
    },
    {
      "inputs": [
        {
          "internalType": "uint256",
          "name": "_tokenId",
          "type": "uint256"
        }
      ],
      "name": "burn",
      "outputs": [],
      "stateMutability": "nonpayable",
      "type": "function"
    },
    {
      "inputs": [
        {
          "internalType": "uint256",
          "name": "_tokenId",
          "type": "uint256"
        }
      ],
      "name": "consumerOf",
      "outputs": [
        {
          "internalType": "address",
          "name": "",
          "type": "address"
        }
      ],
      "stateMutability": "view",
      "type": "function"
    },
    {
      "inputs": [
        {
          "internalType": "address",
          "name": "_consumer",
          "type": "address"
        },
        {
          "internalType": "uint256",
          "name": "_tokenId",
          "type": "uint256"
        }
      ],
      "name": "changeConsumer",
      "outputs": [],
      "stateMutability": "nonpayable",
      "type": "function"
    },
    {
      "inputs": [
        {
          "internalType": "bytes4",
          "name": "interfaceId",
          "type": "bytes4"
        }
      ],
      "name": "supportsInterface",
      "outputs": [
        {
          "internalType": "bool",
          "name": "",
          "type": "bool"
        }
      ],
      "stateMutability": "view",
      "type": "function"
    }
  ],
  "bytecode": "0x60806040523480156200001157600080fd5b506040518060400160405280600d81526020017f566f78656c732070617263656c000000000000000000000000000000000000008152506040518060400160405280600481526020017f4356504100000000000000000000000000000000000000000000000000000000815250816000908051906020019062000096929190620001f4565b508060019080519060200190620000af929190620001f4565b505050620000d2620000c66200012660201b60201c565b6200012e60201b60201c565b6040518060400160405280601f81526020017f68747470733a2f2f7777772e63727970746f766f78656c732e636f6d2f702f00815250600d90805190602001906200011f929190620001f4565b5062000308565b600033905090565b6000600a60009054906101000a900473ffffffffffffffffffffffffffffffffffffffff16905081600a60006101000a81548173ffffffffffffffffffffffffffffffffffffffff021916908373ffffffffffffffffffffffffffffffffffffffff1602179055508173ffffffffffffffffffffffffffffffffffffffff168173ffffffffffffffffffffffffffffffffffffffff167f8be0079c531659141344cd1fd0a4f28419497f9722a3daafe3b4186f6b6457e060405160405180910390a35050565b8280546200020290620002d3565b90600052602060002090601f01602090048101928262000226576000855562000272565b82601f106200024157805160ff191683800117855562000272565b8280016001018555821562000272579182015b828111156200027157825182559160200191906001019062000254565b5b50905062000281919062000285565b5090565b5b80821115620002a057600081600090555060010162000286565b5090565b7f4e487b7100000000000000000000000000000000000000000000000000000000600052602260045260246000fd5b60006002820490506001821680620002ec57607f821691505b602082108103620003025762000301620002a4565b5b50919050565b6143ae80620003186000396000f3fe608060405234801561001057600080fd5b50600436106101585760003560e01c80636352211e116100c3578063a22cb4651161007c578063a22cb465146103c3578063b88d4fde146103df578063c87b56dd146103fb578063e58923311461042b578063e985e9c51461045b578063f2fde38b1461048b57610158565b80636352211e1461030157806370a082311461033157806370b5aecb14610361578063715018a61461037d5780638da5cb5b1461038757806395d89b41146103a557610158565b80632f745c59116101155780632f745c59146102315780633ea61b791461026157806342842e0e1461027d57806342966c68146102995780634f6ccce7146102b557806355f804b3146102e557610158565b806301ffc9a71461015d57806306fdde031461018d578063081812fc146101ab578063095ea7b3146101db57806318160ddd146101f757806323b872dd14610215575b600080fd5b61017760048036038101906101729190612b3b565b6104a7565b6040516101849190612b83565b60405180910390f35b610195610521565b6040516101a29190612c37565b60405180910390f35b6101c560048036038101906101c09190612c8f565b6105b3565b6040516101d29190612cfd565b60405180910390f35b6101f560048036038101906101f09190612d44565b610638565b005b6101ff61074f565b60405161020c9190612d93565b60405180910390f35b61022f600480360381019061022a9190612dae565b61075c565b005b61024b60048036038101906102469190612d44565b6107bc565b6040516102589190612d93565b60405180910390f35b61027b60048036038101906102769190612e3a565b610861565b005b61029760048036038101906102929190612dae565b610b71565b005b6102b360048036038101906102ae9190612c8f565b610b91565b005b6102cf60048036038101906102ca9190612c8f565b610d2a565b6040516102dc9190612d93565b60405180910390f35b6102ff60048036038101906102fa9190613025565b610d9b565b005b61031b60048036038101906103169190612c8f565b610e31565b6040516103289190612cfd565b60405180910390f35b61034b6004803603810190610346919061306e565b610ee2565b6040516103589190612d93565b60405180910390f35b61037b60048036038101906103769190612d44565b610f99565b005b6103856110f9565b005b61038f611181565b60405161039c9190612cfd565b60405180910390f35b6103ad6111ab565b6040516103ba9190612c37565b60405180910390f35b6103dd60048036038101906103d891906130c7565b61123d565b005b6103f960048036038101906103f491906131a8565b611253565b005b61041560048036038101906104109190612c8f565b6112b5565b6040516104229190612c37565b60405180910390f35b61044560048036038101906104409190612c8f565b61135c565b6040516104529190612cfd565b60405180910390f35b6104756004803603810190610470919061322b565b6113e1565b6040516104829190612b83565b60405180910390f35b6104a560048036038101906104a0919061306e565b611475565b005b60007f953c8dfa000000000000000000000000000000000000000000000000000000007bffffffffffffffffffffffffffffffffffffffffffffffffffffffff1916827bffffffffffffffffffffffffffffffffffffffffffffffffffffffff1916148061051a57506105198261156c565b5b9050919050565b6060600080546105309061329a565b80601f016020809104026020016040519081016040528092919081815260200182805461055c9061329a565b80156105a95780601f1061057e576101008083540402835291602001916105a9565b820191906000526020600020905b81548152906001019060200180831161058c57829003601f168201915b5050505050905090565b60006105be826115e6565b6105fd576040517f08c379a00000000000000000000000000000000000000000000000000000000081526004016105f49061333d565b60405180910390fd5b6004600083815260200190815260200160002060009054906101000a900473ffffffffffffffffffffffffffffffffffffffff169050919050565b600061064382610e31565b90508073ffffffffffffffffffffffffffffffffffffffff168373ffffffffffffffffffffffffffffffffffffffff16036106b3576040517f08c379a00000000000000000000000000000000000000000000000000000000081526004016106aa906133cf565b60405180910390fd5b8073ffffffffffffffffffffffffffffffffffffffff166106d2611652565b73ffffffffffffffffffffffffffffffffffffffff1614806107015750610700816106fb611652565b6113e1565b5b610740576040517f08c379a000000000000000000000000000000000000000000000000000000000815260040161073790613461565b60405180910390fd5b61074a838361165a565b505050565b6000600880549050905090565b61076d610767611652565b82611713565b6107ac576040517f08c379a00000000000000000000000000000000000000000000000000000000081526004016107a3906134f3565b60405180910390fd5b6107b78383836117f1565b505050565b60006107c783610ee2565b8210610808576040517f08c379a00000000000000000000000000000000000000000000000000000000081526004016107ff90613585565b60405180910390fd5b600660008473ffffffffffffffffffffffffffffffffffffffff1673ffffffffffffffffffffffffffffffffffffffff168152602001908152602001600020600083815260200190815260200160002054905092915050565b610869611652565b73ffffffffffffffffffffffffffffffffffffffff16610887611181565b73ffffffffffffffffffffffffffffffffffffffff16146108dd576040517f08c379a00000000000000000000000000000000000000000000000000000000081526004016108d4906135f1565b60405180910390fd5b600073ffffffffffffffffffffffffffffffffffffffff168873ffffffffffffffffffffffffffffffffffffffff160361094c576040517f08c379a00000000000000000000000000000000000000000000000000000000081526004016109439061365d565b60405180910390fd5b8560010b8360010b13610994576040517f08c379a000000000000000000000000000000000000000000000000000000000815260040161098b906136c9565b60405180910390fd5b8460010b8260010b136109dc576040517f08c379a00000000000000000000000000000000000000000000000000000000081526004016109d390613735565b60405180910390fd5b8360010b8160010b13610a24576040517f08c379a0000000000000000000000000000000000000000000000000000000008152600401610a1b906137a1565b60405180910390fd5b6040518060c001604052808760010b81526020018660010b81526020018560010b81526020018460010b81526020018360010b81526020018260010b815250600c600089815260200190815260200160002060008201518160000160006101000a81548161ffff021916908360010b61ffff16021790555060208201518160000160026101000a81548161ffff021916908360010b61ffff16021790555060408201518160000160046101000a81548161ffff021916908360010b61ffff16021790555060608201518160000160066101000a81548161ffff021916908360010b61ffff16021790555060808201518160000160086101000a81548161ffff021916908360010b61ffff16021790555060a082015181600001600a6101000a81548161ffff021916908360010b61ffff160217905550905050610b678888611a57565b5050505050505050565b610b8c83838360405180602001604052806000815250611253565b505050565b610b99611652565b73ffffffffffffffffffffffffffffffffffffffff16610bb7611181565b73ffffffffffffffffffffffffffffffffffffffff1614610c0d576040517f08c379a0000000000000000000000000000000000000000000000000000000008152600401610c04906135f1565b60405180910390fd5b610c15611181565b73ffffffffffffffffffffffffffffffffffffffff16610c3482610e31565b73ffffffffffffffffffffffffffffffffffffffff1614610c8a576040517f08c379a0000000000000000000000000000000000000000000000000000000008152600401610c8190613833565b60405180910390fd5b610c9381611a75565b600c6000828152602001908152602001600020600080820160006101000a81549061ffff02191690556000820160026101000a81549061ffff02191690556000820160046101000a81549061ffff02191690556000820160066101000a81549061ffff02191690556000820160086101000a81549061ffff021916905560008201600a6101000a81549061ffff0219169055505050565b6000610d3461074f565b8210610d75576040517f08c379a0000000000000000000000000000000000000000000000000000000008152600401610d6c906138c5565b60405180910390fd5b60088281548110610d8957610d886138e5565b5b90600052602060002001549050919050565b610da3611652565b73ffffffffffffffffffffffffffffffffffffffff16610dc1611181565b73ffffffffffffffffffffffffffffffffffffffff1614610e17576040517f08c379a0000000000000000000000000000000000000000000000000000000008152600401610e0e906135f1565b60405180910390fd5b80600d9080519060200190610e2d929190612a2c565b5050565b6000806002600084815260200190815260200160002060009054906101000a900473ffffffffffffffffffffffffffffffffffffffff169050600073ffffffffffffffffffffffffffffffffffffffff168173ffffffffffffffffffffffffffffffffffffffff1603610ed9576040517f08c379a0000000000000000000000000000000000000000000000000000000008152600401610ed090613986565b60405180910390fd5b80915050919050565b60008073ffffffffffffffffffffffffffffffffffffffff168273ffffffffffffffffffffffffffffffffffffffff1603610f52576040517f08c379a0000000000000000000000000000000000000000000000000000000008152600401610f4990613a18565b60405180910390fd5b600360008373ffffffffffffffffffffffffffffffffffffffff1673ffffffffffffffffffffffffffffffffffffffff168152602001908152602001600020549050919050565b60003073ffffffffffffffffffffffffffffffffffffffff16636352211e836040518263ffffffff1660e01b8152600401610fd49190612d93565b602060405180830381865afa158015610ff1573d6000803e3d6000fd5b505050506040513d601f19601f820116820180604052508101906110159190613a4d565b90508073ffffffffffffffffffffffffffffffffffffffff16611036611652565b73ffffffffffffffffffffffffffffffffffffffff161480611092575061105c826105b3565b73ffffffffffffffffffffffffffffffffffffffff1661107a611652565b73ffffffffffffffffffffffffffffffffffffffff16145b806110aa57506110a9816110a4611652565b6113e1565b5b6110e9576040517f08c379a00000000000000000000000000000000000000000000000000000000081526004016110e090613b12565b60405180910390fd5b6110f4818484611b92565b505050565b611101611652565b73ffffffffffffffffffffffffffffffffffffffff1661111f611181565b73ffffffffffffffffffffffffffffffffffffffff1614611175576040517f08c379a000000000000000000000000000000000000000000000000000000000815260040161116c906135f1565b60405180910390fd5b61117f6000611c44565b565b6000600a60009054906101000a900473ffffffffffffffffffffffffffffffffffffffff16905090565b6060600180546111ba9061329a565b80601f01602080910402602001604051908101604052809291908181526020018280546111e69061329a565b80156112335780601f1061120857610100808354040283529160200191611233565b820191906000526020600020905b81548152906001019060200180831161121657829003601f168201915b5050505050905090565b61124f611248611652565b8383611d0a565b5050565b61126461125e611652565b83611713565b6112a3576040517f08c379a000000000000000000000000000000000000000000000000000000000815260040161129a906134f3565b60405180910390fd5b6112af84848484611e76565b50505050565b60606112c0826115e6565b6112ff576040517f08c379a00000000000000000000000000000000000000000000000000000000081526004016112f690613ba4565b60405180910390fd5b6000611309611ed2565b905060008151116113295760405180602001604052806000815250611354565b8061133384611f64565b604051602001611344929190613c00565b6040516020818303038152906040525b915050919050565b6000611367826115e6565b6113a6576040517f08c379a000000000000000000000000000000000000000000000000000000000815260040161139d90613c96565b60405180910390fd5b600b600083815260200190815260200160002060009054906101000a900473ffffffffffffffffffffffffffffffffffffffff169050919050565b6000600560008473ffffffffffffffffffffffffffffffffffffffff1673ffffffffffffffffffffffffffffffffffffffff16815260200190815260200160002060008373ffffffffffffffffffffffffffffffffffffffff1673ffffffffffffffffffffffffffffffffffffffff16815260200190815260200160002060009054906101000a900460ff16905092915050565b61147d611652565b73ffffffffffffffffffffffffffffffffffffffff1661149b611181565b73ffffffffffffffffffffffffffffffffffffffff16146114f1576040517f08c379a00000000000000000000000000000000000000000000000000000000081526004016114e8906135f1565b60405180910390fd5b600073ffffffffffffffffffffffffffffffffffffffff168173ffffffffffffffffffffffffffffffffffffffff1603611560576040517f08c379a000000000000000000000000000000000000000000000000000000000815260040161155790613d28565b60405180910390fd5b61156981611c44565b50565b60007f780e9d63000000000000000000000000000000000000000000000000000000007bffffffffffffffffffffffffffffffffffffffffffffffffffffffff1916827bffffffffffffffffffffffffffffffffffffffffffffffffffffffff191614806115df57506115de826120c4565b5b9050919050565b60008073ffffffffffffffffffffffffffffffffffffffff166002600084815260200190815260200160002060009054906101000a900473ffffffffffffffffffffffffffffffffffffffff1673ffffffffffffffffffffffffffffffffffffffff1614159050919050565b600033905090565b816004600083815260200190815260200160002060006101000a81548173ffffffffffffffffffffffffffffffffffffffff021916908373ffffffffffffffffffffffffffffffffffffffff160217905550808273ffffffffffffffffffffffffffffffffffffffff166116cd83610e31565b73ffffffffffffffffffffffffffffffffffffffff167f8c5be1e5ebec7d5bd14f71427d1e84f3dd0314c0f7b2291e5b200ac8c7c3b92560405160405180910390a45050565b600061171e826115e6565b61175d576040517f08c379a000000000000000000000000000000000000000000000000000000000815260040161175490613dba565b60405180910390fd5b600061176883610e31565b90508073ffffffffffffffffffffffffffffffffffffffff168473ffffffffffffffffffffffffffffffffffffffff1614806117d757508373ffffffffffffffffffffffffffffffffffffffff166117bf846105b3565b73ffffffffffffffffffffffffffffffffffffffff16145b806117e857506117e781856113e1565b5b91505092915050565b8273ffffffffffffffffffffffffffffffffffffffff1661181182610e31565b73ffffffffffffffffffffffffffffffffffffffff1614611867576040517f08c379a000000000000000000000000000000000000000000000000000000000815260040161185e90613e4c565b60405180910390fd5b600073ffffffffffffffffffffffffffffffffffffffff168273ffffffffffffffffffffffffffffffffffffffff16036118d6576040517f08c379a00000000000000000000000000000000000000000000000000000000081526004016118cd90613ede565b60405180910390fd5b6118e18383836121a6565b6118ec60008261165a565b6001600360008573ffffffffffffffffffffffffffffffffffffffff1673ffffffffffffffffffffffffffffffffffffffff168152602001908152602001600020600082825461193c9190613f2d565b925050819055506001600360008473ffffffffffffffffffffffffffffffffffffffff1673ffffffffffffffffffffffffffffffffffffffff16815260200190815260200160002060008282546119939190613f61565b92505081905550816002600083815260200190815260200160002060006101000a81548173ffffffffffffffffffffffffffffffffffffffff021916908373ffffffffffffffffffffffffffffffffffffffff160217905550808273ffffffffffffffffffffffffffffffffffffffff168473ffffffffffffffffffffffffffffffffffffffff167fddf252ad1be2c89b69c2b068fc378daa952ba7f163c4a11628f55a4df523b3ef60405160405180910390a4611a528383836121c2565b505050565b611a718282604051806020016040528060008152506121c7565b5050565b6000611a8082610e31565b9050611a8e816000846121a6565b611a9960008361165a565b6001600360008373ffffffffffffffffffffffffffffffffffffffff1673ffffffffffffffffffffffffffffffffffffffff1681526020019081526020016000206000828254611ae99190613f2d565b925050819055506002600083815260200190815260200160002060006101000a81549073ffffffffffffffffffffffffffffffffffffffff021916905581600073ffffffffffffffffffffffffffffffffffffffff168273ffffffffffffffffffffffffffffffffffffffff167fddf252ad1be2c89b69c2b068fc378daa952ba7f163c4a11628f55a4df523b3ef60405160405180910390a4611b8e816000846121c2565b5050565b81600b600083815260200190815260200160002060006101000a81548173ffffffffffffffffffffffffffffffffffffffff021916908373ffffffffffffffffffffffffffffffffffffffff160217905550808273ffffffffffffffffffffffffffffffffffffffff168473ffffffffffffffffffffffffffffffffffffffff167f42ef856c2602f37ce625d252830bed486c5c8e9a4de8aa36cc3d15f304eb662b60405160405180910390a4505050565b6000600a60009054906101000a900473ffffffffffffffffffffffffffffffffffffffff16905081600a60006101000a81548173ffffffffffffffffffffffffffffffffffffffff021916908373ffffffffffffffffffffffffffffffffffffffff1602179055508173ffffffffffffffffffffffffffffffffffffffff168173ffffffffffffffffffffffffffffffffffffffff167f8be0079c531659141344cd1fd0a4f28419497f9722a3daafe3b4186f6b6457e060405160405180910390a35050565b8173ffffffffffffffffffffffffffffffffffffffff168373ffffffffffffffffffffffffffffffffffffffff1603611d78576040517f08c379a0000000000000000000000000000000000000000000000000000000008152600401611d6f90614003565b60405180910390fd5b80600560008573ffffffffffffffffffffffffffffffffffffffff1673ffffffffffffffffffffffffffffffffffffffff16815260200190815260200160002060008473ffffffffffffffffffffffffffffffffffffffff1673ffffffffffffffffffffffffffffffffffffffff16815260200190815260200160002060006101000a81548160ff0219169083151502179055508173ffffffffffffffffffffffffffffffffffffffff168373ffffffffffffffffffffffffffffffffffffffff167f17307eab39ab6107e8899845ad3d59bd9653f200f220920489ca2b5937696c3183604051611e699190612b83565b60405180910390a3505050565b611e818484846117f1565b611e8d84848484612222565b611ecc576040517f08c379a0000000000000000000000000000000000000000000000000000000008152600401611ec390614095565b60405180910390fd5b50505050565b6060600d8054611ee19061329a565b80601f0160208091040260200160405190810160405280929190818152602001828054611f0d9061329a565b8015611f5a5780601f10611f2f57610100808354040283529160200191611f5a565b820191906000526020600020905b815481529060010190602001808311611f3d57829003601f168201915b5050505050905090565b606060008203611fab576040518060400160405280600181526020017f300000000000000000000000000000000000000000000000000000000000000081525090506120bf565b600082905060005b60008214611fdd578080611fc6906140b5565b915050600a82611fd6919061412c565b9150611fb3565b60008167ffffffffffffffff811115611ff957611ff8612efa565b5b6040519080825280601f01601f19166020018201604052801561202b5781602001600182028036833780820191505090505b5090505b600085146120b8576001826120449190613f2d565b9150600a85612053919061415d565b603061205f9190613f61565b60f81b818381518110612075576120746138e5565b5b60200101907effffffffffffffffffffffffffffffffffffffffffffffffffffffffffffff1916908160001a905350600a856120b1919061412c565b945061202f565b8093505050505b919050565b60007f80ac58cd000000000000000000000000000000000000000000000000000000007bffffffffffffffffffffffffffffffffffffffffffffffffffffffff1916827bffffffffffffffffffffffffffffffffffffffffffffffffffffffff1916148061218f57507f5b5e139f000000000000000000000000000000000000000000000000000000007bffffffffffffffffffffffffffffffffffffffffffffffffffffffff1916827bffffffffffffffffffffffffffffffffffffffffffffffffffffffff1916145b8061219f575061219e826123a9565b5b9050919050565b6121b1838383612413565b6121bd83600083611b92565b505050565b505050565b6121d18383612525565b6121de6000848484612222565b61221d576040517f08c379a000000000000000000000000000000000000000000000000000000000815260040161221490614095565b60405180910390fd5b505050565b60006122438473ffffffffffffffffffffffffffffffffffffffff166126fe565b1561239c578373ffffffffffffffffffffffffffffffffffffffff1663150b7a0261226c611652565b8786866040518563ffffffff1660e01b815260040161228e94939291906141e3565b6020604051808303816000875af19250505080156122ca57506040513d601f19601f820116820180604052508101906122c79190614244565b60015b61234c573d80600081146122fa576040519150601f19603f3d011682016040523d82523d6000602084013e6122ff565b606091505b506000815103612344576040517f08c379a000000000000000000000000000000000000000000000000000000000815260040161233b90614095565b60405180910390fd5b805181602001fd5b63150b7a0260e01b7bffffffffffffffffffffffffffffffffffffffffffffffffffffffff1916817bffffffffffffffffffffffffffffffffffffffffffffffffffffffff1916149150506123a1565b600190505b949350505050565b60007f01ffc9a7000000000000000000000000000000000000000000000000000000007bffffffffffffffffffffffffffffffffffffffffffffffffffffffff1916827bffffffffffffffffffffffffffffffffffffffffffffffffffffffff1916149050919050565b61241e838383612721565b600073ffffffffffffffffffffffffffffffffffffffff168373ffffffffffffffffffffffffffffffffffffffff16036124605761245b81612726565b61249f565b8173ffffffffffffffffffffffffffffffffffffffff168373ffffffffffffffffffffffffffffffffffffffff161461249e5761249d838261276f565b5b5b600073ffffffffffffffffffffffffffffffffffffffff168273ffffffffffffffffffffffffffffffffffffffff16036124e1576124dc816128dc565b612520565b8273ffffffffffffffffffffffffffffffffffffffff168273ffffffffffffffffffffffffffffffffffffffff161461251f5761251e82826129ad565b5b5b505050565b600073ffffffffffffffffffffffffffffffffffffffff168273ffffffffffffffffffffffffffffffffffffffff1603612594576040517f08c379a000000000000000000000000000000000000000000000000000000000815260040161258b906142bd565b60405180910390fd5b61259d816115e6565b156125dd576040517f08c379a00000000000000000000000000000000000000000000000000000000081526004016125d490614329565b60405180910390fd5b6125e9600083836121a6565b6001600360008473ffffffffffffffffffffffffffffffffffffffff1673ffffffffffffffffffffffffffffffffffffffff16815260200190815260200160002060008282546126399190613f61565b92505081905550816002600083815260200190815260200160002060006101000a81548173ffffffffffffffffffffffffffffffffffffffff021916908373ffffffffffffffffffffffffffffffffffffffff160217905550808273ffffffffffffffffffffffffffffffffffffffff16600073ffffffffffffffffffffffffffffffffffffffff167fddf252ad1be2c89b69c2b068fc378daa952ba7f163c4a11628f55a4df523b3ef60405160405180910390a46126fa600083836121c2565b5050565b6000808273ffffffffffffffffffffffffffffffffffffffff163b119050919050565b505050565b6008805490506009600083815260200190815260200160002081905550600881908060018154018082558091505060019003906000526020600020016000909190919091505550565b6000600161277c84610ee2565b6127869190613f2d565b905060006007600084815260200190815260200160002054905081811461286b576000600660008673ffffffffffffffffffffffffffffffffffffffff1673ffffffffffffffffffffffffffffffffffffffff168152602001908152602001600020600084815260200190815260200160002054905080600660008773ffffffffffffffffffffffffffffffffffffffff1673ffffffffffffffffffffffffffffffffffffffff168152602001908152602001600020600084815260200190815260200160002081905550816007600083815260200190815260200160002081905550505b6007600084815260200190815260200160002060009055600660008573ffffffffffffffffffffffffffffffffffffffff1673ffffffffffffffffffffffffffffffffffffffff16815260200190815260200160002060008381526020019081526020016000206000905550505050565b600060016008805490506128f09190613f2d565b90506000600960008481526020019081526020016000205490506000600883815481106129205761291f6138e5565b5b906000526020600020015490508060088381548110612942576129416138e5565b5b90600052602060002001819055508160096000838152602001908152602001600020819055506009600085815260200190815260200160002060009055600880548061299157612990614349565b5b6001900381819060005260206000200160009055905550505050565b60006129b883610ee2565b905081600660008573ffffffffffffffffffffffffffffffffffffffff1673ffffffffffffffffffffffffffffffffffffffff168152602001908152602001600020600083815260200190815260200160002081905550806007600084815260200190815260200160002081905550505050565b828054612a389061329a565b90600052602060002090601f016020900481019282612a5a5760008555612aa1565b82601f10612a7357805160ff1916838001178555612aa1565b82800160010185558215612aa1579182015b82811115612aa0578251825591602001919060010190612a85565b5b509050612aae9190612ab2565b5090565b5b80821115612acb576000816000905550600101612ab3565b5090565b6000604051905090565b600080fd5b600080fd5b60007fffffffff0000000000000000000000000000000000000000000000000000000082169050919050565b612b1881612ae3565b8114612b2357600080fd5b50565b600081359050612b3581612b0f565b92915050565b600060208284031215612b5157612b50612ad9565b5b6000612b5f84828501612b26565b91505092915050565b60008115159050919050565b612b7d81612b68565b82525050565b6000602082019050612b986000830184612b74565b92915050565b600081519050919050565b600082825260208201905092915050565b60005b83811015612bd8578082015181840152602081019050612bbd565b83811115612be7576000848401525b50505050565b6000601f19601f8301169050919050565b6000612c0982612b9e565b612c138185612ba9565b9350612c23818560208601612bba565b612c2c81612bed565b840191505092915050565b60006020820190508181036000830152612c518184612bfe565b905092915050565b6000819050919050565b612c6c81612c59565b8114612c7757600080fd5b50565b600081359050612c8981612c63565b92915050565b600060208284031215612ca557612ca4612ad9565b5b6000612cb384828501612c7a565b91505092915050565b600073ffffffffffffffffffffffffffffffffffffffff82169050919050565b6000612ce782612cbc565b9050919050565b612cf781612cdc565b82525050565b6000602082019050612d126000830184612cee565b92915050565b612d2181612cdc565b8114612d2c57600080fd5b50565b600081359050612d3e81612d18565b92915050565b60008060408385031215612d5b57612d5a612ad9565b5b6000612d6985828601612d2f565b9250506020612d7a85828601612c7a565b9150509250929050565b612d8d81612c59565b82525050565b6000602082019050612da86000830184612d84565b92915050565b600080600060608486031215612dc757612dc6612ad9565b5b6000612dd586828701612d2f565b9350506020612de686828701612d2f565b9250506040612df786828701612c7a565b9150509250925092565b60008160010b9050919050565b612e1781612e01565b8114612e2257600080fd5b50565b600081359050612e3481612e0e565b92915050565b600080600080600080600080610100898b031215612e5b57612e5a612ad9565b5b6000612e698b828c01612d2f565b9850506020612e7a8b828c01612c7a565b9750506040612e8b8b828c01612e25565b9650506060612e9c8b828c01612e25565b9550506080612ead8b828c01612e25565b94505060a0612ebe8b828c01612e25565b93505060c0612ecf8b828c01612e25565b92505060e0612ee08b828c01612e25565b9150509295985092959890939650565b600080fd5b600080fd5b7f4e487b7100000000000000000000000000000000000000000000000000000000600052604160045260246000fd5b612f3282612bed565b810181811067ffffffffffffffff82111715612f5157612f50612efa565b5b80604052505050565b6000612f64612acf565b9050612f708282612f29565b919050565b600067ffffffffffffffff821115612f9057612f8f612efa565b5b612f9982612bed565b9050602081019050919050565b82818337600083830152505050565b6000612fc8612fc384612f75565b612f5a565b905082815260208101848484011115612fe457612fe3612ef5565b5b612fef848285612fa6565b509392505050565b600082601f83011261300c5761300b612ef0565b5b813561301c848260208601612fb5565b91505092915050565b60006020828403121561303b5761303a612ad9565b5b600082013567ffffffffffffffff81111561305957613058612ade565b5b61306584828501612ff7565b91505092915050565b60006020828403121561308457613083612ad9565b5b600061309284828501612d2f565b91505092915050565b6130a481612b68565b81146130af57600080fd5b50565b6000813590506130c18161309b565b92915050565b600080604083850312156130de576130dd612ad9565b5b60006130ec85828601612d2f565b92505060206130fd858286016130b2565b9150509250929050565b600067ffffffffffffffff82111561312257613121612efa565b5b61312b82612bed565b9050602081019050919050565b600061314b61314684613107565b612f5a565b90508281526020810184848401111561316757613166612ef5565b5b613172848285612fa6565b509392505050565b600082601f83011261318f5761318e612ef0565b5b813561319f848260208601613138565b91505092915050565b600080600080608085870312156131c2576131c1612ad9565b5b60006131d087828801612d2f565b94505060206131e187828801612d2f565b93505060406131f287828801612c7a565b925050606085013567ffffffffffffffff81111561321357613212612ade565b5b61321f8782880161317a565b91505092959194509250565b6000806040838503121561324257613241612ad9565b5b600061325085828601612d2f565b925050602061326185828601612d2f565b9150509250929050565b7f4e487b7100000000000000000000000000000000000000000000000000000000600052602260045260246000fd5b600060028204905060018216806132b257607f821691505b6020821081036132c5576132c461326b565b5b50919050565b7f4552433732313a20617070726f76656420717565727920666f72206e6f6e657860008201527f697374656e7420746f6b656e0000000000000000000000000000000000000000602082015250565b6000613327602c83612ba9565b9150613332826132cb565b604082019050919050565b600060208201905081810360008301526133568161331a565b9050919050565b7f4552433732313a20617070726f76616c20746f2063757272656e74206f776e6560008201527f7200000000000000000000000000000000000000000000000000000000000000602082015250565b60006133b9602183612ba9565b91506133c48261335d565b604082019050919050565b600060208201905081810360008301526133e8816133ac565b9050919050565b7f4552433732313a20617070726f76652063616c6c6572206973206e6f74206f7760008201527f6e6572206e6f7220617070726f76656420666f7220616c6c0000000000000000602082015250565b600061344b603883612ba9565b9150613456826133ef565b604082019050919050565b6000602082019050818103600083015261347a8161343e565b9050919050565b7f4552433732313a207472616e736665722063616c6c6572206973206e6f74206f60008201527f776e6572206e6f7220617070726f766564000000000000000000000000000000602082015250565b60006134dd603183612ba9565b91506134e882613481565b604082019050919050565b6000602082019050818103600083015261350c816134d0565b9050919050565b7f455243373231456e756d657261626c653a206f776e657220696e646578206f7560008201527f74206f6620626f756e6473000000000000000000000000000000000000000000602082015250565b600061356f602b83612ba9565b915061357a82613513565b604082019050919050565b6000602082019050818103600083015261359e81613562565b9050919050565b7f4f776e61626c653a2063616c6c6572206973206e6f7420746865206f776e6572600082015250565b60006135db602083612ba9565b91506135e6826135a5565b602082019050919050565b6000602082019050818103600083015261360a816135ce565b9050919050565b7f43616e2774206d696e7420746f2061646472657373205a65726f000000000000600082015250565b6000613647601a83612ba9565b915061365282613611565b602082019050919050565b600060208201905081810360008301526136768161363a565b9050919050565b7f576964746820697320756e737570706f72746564000000000000000000000000600082015250565b60006136b3601483612ba9565b91506136be8261367d565b602082019050919050565b600060208201905081810360008301526136e2816136a6565b9050919050565b7f68656967687420697320756e737570706f727465640000000000000000000000600082015250565b600061371f601583612ba9565b915061372a826136e9565b602082019050919050565b6000602082019050818103600083015261374e81613712565b9050919050565b7f446570746820697320756e737570706f72746564000000000000000000000000600082015250565b600061378b601483612ba9565b915061379682613755565b602082019050919050565b600060208201905081810360008301526137ba8161377e565b9050919050565b7f546f6b656e206f776e6572206973206e6f7420636f6e7472616374206f776e6560008201527f7200000000000000000000000000000000000000000000000000000000000000602082015250565b600061381d602183612ba9565b9150613828826137c1565b604082019050919050565b6000602082019050818103600083015261384c81613810565b9050919050565b7f455243373231456e756d657261626c653a20676c6f62616c20696e646578206f60008201527f7574206f6620626f756e64730000000000000000000000000000000000000000602082015250565b60006138af602c83612ba9565b91506138ba82613853565b604082019050919050565b600060208201905081810360008301526138de816138a2565b9050919050565b7f4e487b7100000000000000000000000000000000000000000000000000000000600052603260045260246000fd5b7f4552433732313a206f776e657220717565727920666f72206e6f6e657869737460008201527f656e7420746f6b656e0000000000000000000000000000000000000000000000602082015250565b6000613970602983612ba9565b915061397b82613914565b604082019050919050565b6000602082019050818103600083015261399f81613963565b9050919050565b7f4552433732313a2062616c616e636520717565727920666f7220746865207a6560008201527f726f206164647265737300000000000000000000000000000000000000000000602082015250565b6000613a02602a83612ba9565b9150613a0d826139a6565b604082019050919050565b60006020820190508181036000830152613a31816139f5565b9050919050565b600081519050613a4781612d18565b92915050565b600060208284031215613a6357613a62612ad9565b5b6000613a7184828501613a38565b91505092915050565b7f455243373231436f6e73756d61626c653a206368616e6765436f6e73756d657260008201527f2063616c6c6572206973206e6f74206f776e6572206e6f7220617070726f766560208201527f6400000000000000000000000000000000000000000000000000000000000000604082015250565b6000613afc604183612ba9565b9150613b0782613a7a565b606082019050919050565b60006020820190508181036000830152613b2b81613aef565b9050919050565b7f4552433732314d657461646174613a2055524920717565727920666f72206e6f60008201527f6e6578697374656e7420746f6b656e0000000000000000000000000000000000602082015250565b6000613b8e602f83612ba9565b9150613b9982613b32565b604082019050919050565b60006020820190508181036000830152613bbd81613b81565b9050919050565b600081905092915050565b6000613bda82612b9e565b613be48185613bc4565b9350613bf4818560208601612bba565b80840191505092915050565b6000613c0c8285613bcf565b9150613c188284613bcf565b91508190509392505050565b7f455243373231436f6e73756d61626c653a20636f6e73756d657220717565727960008201527f20666f72206e6f6e6578697374656e7420746f6b656e00000000000000000000602082015250565b6000613c80603683612ba9565b9150613c8b82613c24565b604082019050919050565b60006020820190508181036000830152613caf81613c73565b9050919050565b7f4f776e61626c653a206e6577206f776e657220697320746865207a65726f206160008201527f6464726573730000000000000000000000000000000000000000000000000000602082015250565b6000613d12602683612ba9565b9150613d1d82613cb6565b604082019050919050565b60006020820190508181036000830152613d4181613d05565b9050919050565b7f4552433732313a206f70657261746f7220717565727920666f72206e6f6e657860008201527f697374656e7420746f6b656e0000000000000000000000000000000000000000602082015250565b6000613da4602c83612ba9565b9150613daf82613d48565b604082019050919050565b60006020820190508181036000830152613dd381613d97565b9050919050565b7f4552433732313a207472616e736665722066726f6d20696e636f72726563742060008201527f6f776e6572000000000000000000000000000000000000000000000000000000602082015250565b6000613e36602583612ba9565b9150613e4182613dda565b604082019050919050565b60006020820190508181036000830152613e6581613e29565b9050919050565b7f4552433732313a207472616e7366657220746f20746865207a65726f2061646460008201527f7265737300000000000000000000000000000000000000000000000000000000602082015250565b6000613ec8602483612ba9565b9150613ed382613e6c565b604082019050919050565b60006020820190508181036000830152613ef781613ebb565b9050919050565b7f4e487b7100000000000000000000000000000000000000000000000000000000600052601160045260246000fd5b6000613f3882612c59565b9150613f4383612c59565b925082821015613f5657613f55613efe565b5b828203905092915050565b6000613f6c82612c59565b9150613f7783612c59565b9250827fffffffffffffffffffffffffffffffffffffffffffffffffffffffffffffffff03821115613fac57613fab613efe565b5b828201905092915050565b7f4552433732313a20617070726f766520746f2063616c6c657200000000000000600082015250565b6000613fed601983612ba9565b9150613ff882613fb7565b602082019050919050565b6000602082019050818103600083015261401c81613fe0565b9050919050565b7f4552433732313a207472616e7366657220746f206e6f6e20455243373231526560008201527f63656976657220696d706c656d656e7465720000000000000000000000000000602082015250565b600061407f603283612ba9565b915061408a82614023565b604082019050919050565b600060208201905081810360008301526140ae81614072565b9050919050565b60006140c082612c59565b91507fffffffffffffffffffffffffffffffffffffffffffffffffffffffffffffffff82036140f2576140f1613efe565b5b600182019050919050565b7f4e487b7100000000000000000000000000000000000000000000000000000000600052601260045260246000fd5b600061413782612c59565b915061414283612c59565b925082614152576141516140fd565b5b828204905092915050565b600061416882612c59565b915061417383612c59565b925082614183576141826140fd565b5b828206905092915050565b600081519050919050565b600082825260208201905092915050565b60006141b58261418e565b6141bf8185614199565b93506141cf818560208601612bba565b6141d881612bed565b840191505092915050565b60006080820190506141f86000830187612cee565b6142056020830186612cee565b6142126040830185612d84565b818103606083015261422481846141aa565b905095945050505050565b60008151905061423e81612b0f565b92915050565b60006020828403121561425a57614259612ad9565b5b60006142688482850161422f565b91505092915050565b7f4552433732313a206d696e7420746f20746865207a65726f2061646472657373600082015250565b60006142a7602083612ba9565b91506142b282614271565b602082019050919050565b600060208201905081810360008301526142d68161429a565b9050919050565b7f4552433732313a20746f6b656e20616c7265616479206d696e74656400000000600082015250565b6000614313601c83612ba9565b915061431e826142dd565b602082019050919050565b6000602082019050818103600083015261434281614306565b9050919050565b7f4e487b7100000000000000000000000000000000000000000000000000000000600052603160045260246000fdfea2646970667358221220c993ec259a442f822da629fb0f9f6b9f7978735315e5b1941cf7c78ba00753cc64736f6c634300080e0033",
  "immutableReferences": {},
  "source": "//SPDX-License-Identifier: MIT\npragma solidity ^0.8.4;\n\nimport \"@openzeppelin/contracts/token/ERC721/ERC721.sol\";\nimport \"@openzeppelin/contracts/token/ERC721/extensions/ERC721Enumerable.sol\";\nimport \"@openzeppelin/contracts/token/ERC721/extensions/IERC721Enumerable.sol\";\nimport \"@openzeppelin/contracts/interfaces/IERC165.sol\";\nimport \"@openzeppelin/contracts/access/Ownable.sol\";\n\n/// @title ERC-721 Consumer Role extension\n///  Note: the ERC-165 identifier for this interface is 0x953c8dfa\n/* is ERC721 */\ninterface IERC721Consumable {\n    /// @notice Emitted when `owner` changes the `consumer` of an NFT\n    /// The zero address for consumer indicates that there is no consumer address\n    /// When a Transfer event emits, this also indicates that the consumer address\n    /// for that NFT (if any) is set to none\n    event ConsumerChanged(\n        address indexed owner,\n        address indexed consumer,\n        uint256 indexed tokenId\n    );\n\n    /// @notice Get the consumer address of an NFT\n    /// @dev The zero address indicates that there is no consumer\n    /// Throws if `_tokenId` is not a valid NFT\n    /// @param _tokenId The NFT to get the consumer address for\n    /// @return The consumer address for this NFT, or the zero address if there is none\n    function consumerOf(uint256 _tokenId) external view returns (address);\n\n    /// @notice Change or reaffirm the consumer address for an NFT\n    /// @dev The zero address indicates there is no consumer address\n    /// Throws unless `msg.sender` is the current NFT owner, an authorised\n    /// operator of the current owner or approved address\n    /// Throws if `_tokenId` is not valid NFT\n    /// @param _consumer The new consumer of the NFT\n    function changeConsumer(address _consumer, uint256 _tokenId) external;\n}\n\ncontract ParcelERC721Storage is IERC721Consumable, ERC721Enumerable, Ownable {\n    /// @dev Mapping from token ID to consumer address\n    mapping(uint256 => address) _tokenConsumers;\n\n    /// @dev Parcel id to bounding boxes\n    mapping(uint256 => BoundingBox) internal boundingBoxes;\n\n    /// @dev The structure of a parcel bounding box\n    struct BoundingBox {\n        int16 x1;\n        int16 y1;\n        int16 z1;\n        int16 x2;\n        int16 y2;\n        int16 z2;\n    }\n\n    /// @dev  Represents the base of the tokenUri\n    string private _baseUri;\n\n    constructor() ERC721(\"Voxels parcel\", \"CVPA\") {\n        _baseUri = \"https://www.cryptovoxels.com/p/\";\n    }\n\n    /**\n    * @notice Requires positive width,height and depth\n    * @dev Creates a new parcel as NFT.\n    * @param _to address receiving the Parcel\n    * @param _tokenId the id of the new Parcel.\n    * @param x1 property x1 of the first point of the bounding box\n    * @param y1 property y1 of the first point of the bounding box\n    * @param z1 property z1 of the first point of the bounding box\n    * @param x2 property x1 of the second point of the bounding box\n    * @param y2 property x1 of the second point of the bounding box\n    * @param z2 property x1 of the second point of the bounding box\n    */\n    function mint(\n        address _to,\n        uint256 _tokenId,\n        int16 x1,\n        int16 y1,\n        int16 z1,\n        int16 x2,\n        int16 y2,\n        int16 z2\n    ) external onlyOwner {\n        require(_to != address(0), \"Can't mint to address Zero\");\n        require(x2 > x1, \"Width is unsupported\");\n        require(y2 > y1, \"height is unsupported\");\n        require(z2 > z1, \"Depth is unsupported\");\n\n        // Set bounds\n        boundingBoxes[_tokenId] = BoundingBox(x1, y1, z1, x2, y2, z2);\n\n        _safeMint(_to, _tokenId);\n    }\n        \n    /**\n    * @notice Sets the baseURI for tokens\n    * @dev Sets the baseURI for tokens, only the contract owner can call;\n    * @param baseUri a string that forms a URI\n    */\n    function setBaseURI(string memory baseUri) external onlyOwner {\n        _baseUri = baseUri;\n    }\n\n    /**\n     * @notice Base URI for computing {tokenURI}\n     * @dev overrides ERC721 - _baseURI\n     * @return _baseUri Baseuri of metadata\n     */\n    function _baseURI() internal view override(ERC721) returns (string memory) {\n        return _baseUri;\n    }\n\n    /**\n     * @notice see @ERC721._burn();\n     * @dev We purposely only allow the contract owner to burn. This is to relate to the real-world where one cannot destroy land.\n     * @param _tokenId a token Id\n     */\n    function burn(uint256 _tokenId) public onlyOwner {\n        require(\n            ownerOf(_tokenId) == owner(),\n            \"Token owner is not contract owner\"\n        );\n        _burn(_tokenId);\n\n        // Delete bounding box metadata\n        delete boundingBoxes[_tokenId];\n    }\n\n    /**\n     * @dev See {IERC721Consumable-consumerOf}\n     */\n    function consumerOf(uint256 _tokenId)\n        external\n        view\n        override\n        returns (address)\n    {\n        require(\n            _exists(_tokenId),\n            \"ERC721Consumable: consumer query for nonexistent token\"\n        );\n        return _tokenConsumers[_tokenId];\n    }\n\n    /**\n     * @dev See {IERC721Consumable-changeConsumer}\n     */\n    function changeConsumer(address _consumer, uint256 _tokenId)\n        external\n        override\n    {\n        address tokenOwner = this.ownerOf(_tokenId);\n        require(\n            _msgSender() == tokenOwner ||\n                _msgSender() == getApproved(_tokenId) ||\n                isApprovedForAll(tokenOwner, _msgSender()),\n            \"ERC721Consumable: changeConsumer caller is not owner nor approved\"\n        );\n        _changeConsumer(tokenOwner, _consumer, _tokenId);\n    }\n\n    /**\n     * @dev Changes the consumer\n     * Requirement: `tokenId` must exist\n     */\n    function _changeConsumer(\n        address tokenOwner,\n        address _consumer,\n        uint256 _tokenId\n    ) internal {\n        _tokenConsumers[_tokenId] = _consumer;\n        emit ConsumerChanged(tokenOwner, _consumer, _tokenId);\n    }\n\n    /**\n     * @dev See {IERC165-supportsInterface}.\n     */\n    function supportsInterface(bytes4 interfaceId)\n        public\n        view\n        virtual\n        override(ERC721Enumerable)\n        returns (bool)\n    {\n        return\n            interfaceId == type(IERC721Consumable).interfaceId ||\n            super.supportsInterface(interfaceId);\n    }\n\n    /**\n     * @dev See {ERC721Consumable}.\n     */\n    function _beforeTokenTransfer(\n        address _from,\n        address _to,\n        uint256 _tokenId\n    ) internal override(ERC721Enumerable) {\n        ERC721Enumerable._beforeTokenTransfer(_from, _to, _tokenId);\n\n        _changeConsumer(_from, address(0), _tokenId);\n    }\n}\n\ncontract Parcel is ParcelERC721Storage {\n    address internal creator;\n\n    constructor() {\n        creator = msg.sender;\n    }\n\n    /**\n     * @dev takeOwnership() let the original contract creator to take over the contract.\n     */\n    function takeOwnership() external {\n        require(_msgSender() == creator);\n        transferOwnership(creator);\n    }\n\n    /**\n     * Overrides transferOwnership of Ownable.\n     * @dev Transfers ownership of the contract to a new account (`newOwner`).\n     * Can only be called by the current owner or the contract creator.\n     */\n    function transferOwnership(address newOwner) public override(Ownable) {\n        require(\n            newOwner != address(0),\n            \"Ownable: new owner is the zero address\"\n        );\n        if (_msgSender() == creator || _msgSender() == owner()) {\n            _transferOwnership(newOwner);\n        }\n    }\n\n    /**\n     * @notice Returns bounding box of the parcel\n     * @param _tokenId token Id of the parcel\n     * @return x1 number, y1 number, z1 number,x2 number,y2 number,z2 number\n     */\n    function getBoundingBox(uint256 _tokenId)\n        external\n        view\n        returns (\n            int16 x1,\n            int16 y1,\n            int16 z1,\n            int16 x2,\n            int16 y2,\n            int16 z2\n        )\n    {\n        require(_exists(_tokenId), \"Token id does not exists\");\n\n        x1 = boundingBoxes[_tokenId].x1;\n        y1 = boundingBoxes[_tokenId].y1;\n        z1 = boundingBoxes[_tokenId].z1;\n        x2 = boundingBoxes[_tokenId].x2;\n        y2 = boundingBoxes[_tokenId].y2;\n        z2 = boundingBoxes[_tokenId].z2;\n    }\n\n    /**\n     * @notice Returns the parcels owned by _owner\n     * @param tokenOwner Address of the owner\n     * @return _ids list of token ids\n     */\n    function parcelsOf(address tokenOwner)\n        external\n        view\n        returns (uint256[] memory _ids)\n    {\n        require(tokenOwner != address(0), \"Address Zero not supported\");\n        uint256 balance;\n        balance = balanceOf(tokenOwner);\n        uint256[] memory ids = new uint256[](balance);\n        for (uint256 i = 0; i < balance; i++) {\n            ids[i] = tokenOfOwnerByIndex(tokenOwner, i);\n        }\n        return ids;\n    }\n}\n",
  "sourcePath": "/Users/talent/Documents/Voxels/parcel-migration/contracts/parcels.sol",
  "compiler": {
    "name": "solc",
    "version": "0.8.14+commit.80d49f37.Emscripten.clang"
  },
  "schemaVersion": "3.4.3",
  "updatedAt": "2022-06-13T00:30:36.448Z",
  "devdoc": {
    "kind": "dev",
    "methods": {
      "approve(address,uint256)": {
        "details": "See {IERC721-approve}."
      },
      "balanceOf(address)": {
        "details": "See {IERC721-balanceOf}."
      },
      "burn(uint256)": {
        "details": "We purposely only allow the contract owner to burn. This is to relate to the real-world where one cannot destroy land.",
        "params": {
          "_tokenId": "a token Id"
        }
      },
      "changeConsumer(address,uint256)": {
        "details": "See {IERC721Consumable-changeConsumer}"
      },
      "consumerOf(uint256)": {
        "details": "See {IERC721Consumable-consumerOf}"
      },
      "getApproved(uint256)": {
        "details": "See {IERC721-getApproved}."
      },
      "isApprovedForAll(address,address)": {
        "details": "See {IERC721-isApprovedForAll}."
      },
      "mint(address,uint256,int16,int16,int16,int16,int16,int16)": {
        "details": "Creates a new parcel as NFT.",
        "params": {
          "_to": "address receiving the Parcel",
          "_tokenId": "the id of the new Parcel.",
          "x1": "property x1 of the first point of the bounding box",
          "x2": "property x1 of the second point of the bounding box",
          "y1": "property y1 of the first point of the bounding box",
          "y2": "property x1 of the second point of the bounding box",
          "z1": "property z1 of the first point of the bounding box",
          "z2": "property x1 of the second point of the bounding box"
        }
      },
      "name()": {
        "details": "See {IERC721Metadata-name}."
      },
      "owner()": {
        "details": "Returns the address of the current owner."
      },
      "ownerOf(uint256)": {
        "details": "See {IERC721-ownerOf}."
      },
      "renounceOwnership()": {
        "details": "Leaves the contract without owner. It will not be possible to call `onlyOwner` functions anymore. Can only be called by the current owner. NOTE: Renouncing ownership will leave the contract without an owner, thereby removing any functionality that is only available to the owner."
      },
      "safeTransferFrom(address,address,uint256)": {
        "details": "See {IERC721-safeTransferFrom}."
      },
      "safeTransferFrom(address,address,uint256,bytes)": {
        "details": "See {IERC721-safeTransferFrom}."
      },
      "setApprovalForAll(address,bool)": {
        "details": "See {IERC721-setApprovalForAll}."
      },
      "setBaseURI(string)": {
        "details": "Sets the baseURI for tokens, only the contract owner can call;",
        "params": {
          "baseUri": "a string that forms a URI"
        }
      },
      "supportsInterface(bytes4)": {
        "details": "See {IERC165-supportsInterface}."
      },
      "symbol()": {
        "details": "See {IERC721Metadata-symbol}."
      },
      "tokenByIndex(uint256)": {
        "details": "See {IERC721Enumerable-tokenByIndex}."
      },
      "tokenOfOwnerByIndex(address,uint256)": {
        "details": "See {IERC721Enumerable-tokenOfOwnerByIndex}."
      },
      "tokenURI(uint256)": {
        "details": "See {IERC721Metadata-tokenURI}."
      },
      "totalSupply()": {
        "details": "See {IERC721Enumerable-totalSupply}."
      },
      "transferFrom(address,address,uint256)": {
        "details": "See {IERC721-transferFrom}."
      },
      "transferOwnership(address)": {
        "details": "Transfers ownership of the contract to a new account (`newOwner`). Can only be called by the current owner."
      }
    },
    "stateVariables": {
      "_baseUri": {
        "details": "Represents the base of the tokenUri"
      },
      "_tokenConsumers": {
        "details": "Mapping from token ID to consumer address"
      },
      "boundingBoxes": {
        "details": "Parcel id to bounding boxes"
      }
    },
    "version": 1
  },
  "userdoc": {
    "events": {
      "ConsumerChanged(address,address,uint256)": {
        "notice": "Emitted when `owner` changes the `consumer` of an NFT The zero address for consumer indicates that there is no consumer address When a Transfer event emits, this also indicates that the consumer address for that NFT (if any) is set to none"
      }
    },
    "kind": "user",
    "methods": {
      "burn(uint256)": {
        "notice": "see @ERC721._burn();"
      },
      "mint(address,uint256,int16,int16,int16,int16,int16,int16)": {
        "notice": "Requires positive width,height and depth"
      },
      "setBaseURI(string)": {
        "notice": "Sets the baseURI for tokens"
      }
    },
    "version": 1
  }
}